:020000040800F2
:10000000E805002001010008F3220008592100083A
:10001000F1220008D107000819260008000000009E
:10002000000000000000000000000000F7220008AF
:100030000B08000800000000F5220008F922000863
:100040001B0100081B0100081B0100081B01000820
:100050001B0100081B0100081B0100081B01000810
:100060001B0100081B0100081B010008D507000840
:100070001B0100081B0100081B0100081B010008F0
:100080001B0100081B010008950600081B01000861
:100090001B0100081B0100081B0100081B010008D0
:1000A0001B0100081B0100081B0100081B010008C0
:1000B0001B010008552300081B0100081B01000854
:1000C0001B0100081B0100081B0100081B010008A0
:1000D0001B0100081B0100081B0100080D26000879
:1000E0001B0100081B0100081B010008DFF80CD0F1
:1000F00000F0BEFA0048004771280008E80500201B
:100100000648804706480047FEE7FEE7FEE7FEE7B1
:10011000FEE7FEE7FEE7FEE7FEE7FEE75123000805
:10012000ED000008202A04DB203A21FA02F0002129
:10013000704721FA02F3D040C2F1200291400843F7
:1001400019467047D2B201E000F8012B491EFBD2DC
:1001500070470022F6E710B513460A4604461946D2
:10016000FFF7F0FF204610BD2DE9FE4F804681EAE3
:100170000300C00F0C46009021F0004123F0004521
:10018000B8EB0200A94105D24046214690461C46E4
:100190000B46024623F00040104347D0270DC7F31B
:1001A0000A00C3F30A510290401A019040286BDA0A
:1001B000C3F3130040F4801B0098924620B1002343
:1001C000D2EB030A63EB0B0B01985946C0F14002D6
:1001D000504600F098F906460D4650465946019A99
:1001E00000F0A0F910EB08006141002487EA1152E9
:1001F00084EAE7731A4340D0009A62B3019A012A55
:100200004FEA075215DC001B61EB02014FF0004280
:1002100002EA0752CDE90042001C41F58011324646
:100220002B4600F0D7F903B0BDE8F08F40462146D9
:10023000F9E7001B61EB0201001C41F58013001877
:100240005B412018A2F5001747EB030140EAD57087
:10025000B6196D4111E06D084FEA360645EAC075E2
:100260004FEA0752001B61EB0201001C41F58011AF
:1002700049084FEA30000019514132462B4603B07D
:10028000BDE8F04F00F097B900980122400000232C
:10029000D0EB020263EBE073009821464FEAE07472
:1002A000B8EB000061EB0401E9E783F000435BE792
:1002B00081F0004158E72DE9FE4F81EA030404F084
:1002C000004421F0004100944FF0000B23F0004364
:1002D00050EA01045ED052EA03045BD0C3F30A542F
:1002E000C1F30A552C44A4F2F3340194A0FB025448
:1002F000C1F3130141F48011C3F3130343F48013DA
:1003000001FB024400FB034E840A970A44EA81542D
:1003100047EA8357A4FB076802958D0A05FB07850A
:100320004FEA932C04FB0C542705029D4FEA065814
:1003300047EA1637B5EB08056EEB070C870E920EF1
:1003400047EA811742EA8312A7FB0201B6EB0B01D1
:1003500064EB00042B0D43EA0C335E1844EB1C5095
:10036000DA465146E7FB0201C5F313044FEA0B33AB
:1003700043EA14534FEA0432019C43EA0603A4F112
:100380000C040294009CCDE900B400F023F903B002
:10039000BDE8F08F00200146F9E72DE9F04D81EA34
:1003A000030404F0004B21F0004514464FF0000A0E
:1003B00023F0004150EA050220D054EA01021DD08A
:1003C000C5F30A570246C5F31303C1F31300C1F383
:1003D0000A5640F4801543F48013A7EB0608101B5F
:1003E000D64608F2FD3873EB050002D308F1010888
:1003F00001E092185B41B8F1000F03DA00200146DA
:10040000BDE8F08D00204FF48011064684460EE0D2
:10041000171B73EB050705D3121B63EB050306439C
:100420004CEA010C49084FEA300092185B4150EA4F
:100430000107EDD152EA030012D082EA040083EAF8
:100440000501084305D0101BAB4106D20122002351
:1004500006E000224FF0004302E06FF0010253106B
:100460001AEB06004CEB085110EB0A0041EB0B01B4
:10047000BDE8F04D00F09FB896230022114600F031
:100480006CB8C1F30A5210B5C1F3130140F2FF3347
:1004900041F480119A4201DA002010BD40F233434A
:1004A0009A42A2F2334203DC5242FFF73BFE10BDF8
:1004B000904010BD00F0004230F000400AD0C10D65
:1004C00001F56071C0F3160042EA0151C20840070D
:1004D0001143704700200146704730B50B46014676
:1004E00000202022012409E021FA02F59D4205D3D3
:1004F00003FA02F5491B04FA02F52844151EA2F17D
:100500000102F1DC30BD202A04DB203A00FA02F1BE
:10051000002070479140C2F1200320FA03F31943F1
:1005200090407047202A06DBCB17203A41FA02F0B0
:1005300043EAE07306E041FA02F3D040C2F1200240
:1005400091400843194670470029A8BF7047401CD6
:10055000490008BF20F00100704710B4B0FA80FCD9
:1005600000FA0CF050EA010404BF10BC704749B116
:10057000CCF1200421FA04F411FA0CF118BF012186
:1005800021430843A3EB0C01CB1D4FEA00614FEA66
:10059000102042BF002010BC704700EBC350104435
:1005A0000029A4BF10BC7047401C490008BF20F0C0
:1005B000010010BC704710B5141E73F1000408DA76
:1005C000401C41F1000192185B411A4301D120F017
:1005D000010010BD2DE9F04D92469B4611B1B1FAD4
:1005E00081F202E0B0FA80F220329046FFF78BFFF2
:1005F00004460F4640EA0A0041EA0B0153465A46B8
:10060000084313D0114653EA010019D0C8F1400243
:100610005046FFF787FD05460E465046594642466E
:10062000FFF771FF084305D0012004E0204639465A
:10063000BDE8F08D0020054346EAE0762C433743C1
:100640000A986305E40AA0EB08000022FD0A44EAC8
:1006500047540A3002D500200146E9E70105101988
:100660006941DDE9084500196941BDE8F04DA2E79F
:10067000064C074D06E0E06840F0010394E80700EF
:1006800098471034AC42F6D3FFF734FDBC2800087D
:10069000DC280008014800F0A2B90000EC000020AE
:1006A00070B5044600688168C943C9071CD18168D8
:1006B00021F00101816000F0B7FD05460FE000BFA9
:1006C00000F0B2FD401B022809D9A06A40F01000DA
:1006D000A062E06A40F00100E062012070BD206885
:1006E0008068C043C007EBD0002070BD10B5014644
:1006F000406A826A12F0500F05D0006A026BBDE8B2
:10070000104008461047816A41F400718162016817
:100710008968C1F3424107290CD1017B51B9816A33
:1007200021F480718162816AC90403D4816A41F035
:100730000101816200F050F910BD10B5406A816A74
:1007400041F040018162C16A41F00401C16200F0E0
:1007500045F910BD10B5406A00F03FF910BD00002A
:10076000F8B500260446009600688168C943C907A9
:1007700028D0816841F00101816013481349006865
:10078000B0FBF1F000E0401E00900028FBD100F02B
:100790004BFD054611E000BF00F046FD401B02285E
:1007A0000BD9A06A40F01000A062E06A40F001009E
:1007B000E06284F824600120F8BD20688068C043AE
:1007C000C007E9D10020F8BDD400002040420F004E
:1007D000FEE70000014800F027BB00001C010020DC
:1007E00030B590F840500124AC40C56B6C60046893
:1007F00063604368102B036803D099600068C2608F
:1008000030BD9A600068C16030BD7047704700001D
:10081000F8B500250446009590F82400012808D07A
:10082000012084F824002046FFF73AFF060002D09A
:100830004BE00220F8BDA06A20F4885040F002008E
:10084000A062022000F08EFD22490968B1FBF0F0A1
:10085000400000E0401E00900028FBD12046FFF73A
:100860007FFF2068816841F00801816000F0DCFCB6
:10087000074604E000F0D8FCC01B0A2811D8206805
:1008800080680007F6D42068816841F00401816027
:1008900000F0CAFC07460EE000F0C6FCC01B0A28A8
:1008A00009D9A06A20F0020040F01000A06284F88C
:1008B00024500120F8BD206880684007ECD4A06A6D
:1008C00020F0020040F00100A06284F8245030467D
:1008D000F8BD0000D400002070470000F8B50024E7
:1008E000009490F824202546012A12D0012280F895
:1008F00024204A681F23072A0DD20668776B521EF0
:1009000002EB820293409F430B6893401F4377633F
:1009100019E00220F8BD06680D2A0AD2376BD21FF3
:1009200002EB820293409F430B6893401F4337635F
:1009300009E0F76A0D3A02EB820293409F430B688D
:1009400093401F43F7620A68072306680A2A0AD3FE
:10095000F7680A3A02EB420293409F438B68934048
:100960001F43F76008E0376902EB420293409F4360
:100970008B6893401F4337610A68102A01D0112AFF
:1009800020D1124B02689A4217D193681B0219D4E6
:10099000936843F4000393600968102912D10C494D
:1009A0000C4A0968B1FBF2F101EB8101490000E05A
:1009B000491E00910029FBD104E0816A41F0200129
:1009C0008162012480F824502046F8BD00240140B3
:1009D000D400002040420F0070477047704710B5A8
:1009E000044600684168890626D50168890723D531
:1009F000A16AC90603D4A16A41F40071A1628168A9
:100A0000C1F34241072910D1217B71B9416821F01E
:100A100020014160A06A20F48070A062A06AC00436
:100A200003D4A06A40F00100A0622046FFF7D4FF83
:100A300021686FF0120008602068416809062ED511
:100A4000016849072BD5A16AC90603D4A16A41F4FC
:100A50000051A1628168C1F30231072909D04168C0
:100A6000490515D48168C1F34241072910D1217B82
:100A700071B9416821F080014160A06A20F4805082
:100A8000A062A06AC00503D4A06A40F00100A06281
:100A90002046FFF721FF21686FF00C0008602068F6
:100AA000416849060DD50068C0070AD0A06A40F425
:100AB0008030A062204600F093F821686FF00100BA
:100AC000086010BD2DE9F0414FF0000704003D46DD
:100AD0007ED0A06A002628B9E66284F82460204609
:100AE00000F080F82046FFF7DBFDA16AC90600D4BC
:100AF00020B1A06A40F01000A06269E0A16A21F470
:100B0000885141F00201A1626268E169237B0A43D6
:100B100047EA43010A43A1684FF48077B94209D0FC
:100B2000012907D05FF0000194F814C0BCF1010F57
:100B300002D00AE03946F7E7F3B1A36A43F0200395
:100B4000A362E36A43F00103E3622368D3F804C0BD
:100B50002CF4694C4CEA010CC3F804C021688B6882
:100B6000DFF870C003EA0C0313438B60A168B9423D
:100B70000BD0012909D00CE0DFF85CC0A3690CEBB5
:100B800043330B4343F40061DFE7218A0D05A5F5EC
:100B900080152168CB6A23F470032B43CB62216854
:100BA00089680E4B1940914208D1E662A16A21F092
:100BB000020141F00101A162BDE8F081A06A20F0CC
:100BC000020040F01000A062E06A40F00100E06224
:100BD0000120F1E7FDF7E1FF00E0FFFFFE0E1FFF40
:100BE0007047000070B586B0002506460095019557
:100BF0000295039500681E49884236D11D498869CF
:100C000040F400708861886900F40070049088697D
:100C100040F0040088618869694600F0040004908F
:100C20000F20009003200190134800F00DFA144C9F
:100C30001248C4E900058020C4E902508000206108
:100C4000800060612020C4E90605204600F096F986
:100C500008B1FFF7DBFD3462002211461220666204
:100C600000F04EFB122000F03DFB06B070BD00000E
:100C7000002401400010024000080140080002402A
:100C80001C0100202DE9F047894604463B490068D5
:100C90003B4F0E1D9046884201D0B84207D13068C4
:100CA00010F4702F03D001252846BDE8F08794F892
:100CB000240001280CD0012084F824002046FFF7EE
:100CC0004FFD05004FF0000004D084F82400EBE74E
:100CD0000220EAE7A16A40F60162914341F4807183
:100CE000A1622168B94218D1326812F4702F14D071
:100CF000A16A41F48011A1623168490505D5A16A54
:100D000021F4005141F48051A162A16AC9040AD5BD
:100D1000E16A21F00601E16206E0A26A22F4801293
:100D2000A2624968E9E7E06284F82400216A154874
:100D30008862216A1448C862216A144808632168DD
:100D40006FF0020008602068816841F48071816062
:100D5000216843464A464C31206A00F03DF920683C
:100D60008168C1F342410729816803D041F48011B1
:100D7000816099E741F4A001FAE7000000240140F6
:100D800000280140ED060008550700083B07000851
:100D900010B590F821100024022903D004218163AA
:100DA00001243DE001680A6822F00E020A60016831
:100DB0000A6822F001020A601A4A0168914201D1D0
:100DC000012121E0174A1432914201D110211BE088
:100DD000144A2832914201D1891515E0114A3C325A
:100DE000914201D189140FE00E4A5032914202D152
:100DF0004FF4803108E00B4A6432914202D14FF443
:100E0000801101E04FF08071064A083A51600121DB
:100E100080F82110002180F82010416B01B1884733
:100E2000204610BD080002402DE9F05FC16B0C6840
:100E300001680B68D0F840C0042202FA0CF2494D58
:100E4000DFF824A1494E4A4FDFF828B1DFF828E146
:100E500022422CD05A072AD50A68920603D40A687F
:100E600022F004020A600168A94201D1042219E0BB
:100E7000514501D1402215E0B14202D14FF48062C8
:100E800010E0B94202D14FF480420BE0594502D143
:100E90004FF4802206E0714502D14FF4800201E058
:100EA0004FF080622F4908394A60C16A3BE04FF039
:100EB000020808FA0CF818EA040F4FF000094FF086
:100EC000010235D05FEA837832D50B689B0605D4E2
:100ED0000B6823F00A030B6080F821200168A94207
:100EE00001D1022219E0514501D1202215E0B14281
:100EF00002D14FF4007210E0B94202D14FF4005217
:100F00000BE0594502D14FF4003206E0714502D1A1
:100F10004FF4001201E04FF00072124908394A60A4
:100F200080F82090816A00291AD0BDE8F05F084758
:100F3000082505FA0CF5254212D01B0710D50B68C1
:100F400023F00E030B6090F84010C36B02FA01F11E
:100F50005960826380F8212080F82090016BE2E7DD
:100F6000BDE8F09F080002401C0002403000024033
:100F700044000240580002406C00024030B528B3E3
:100F800008C8134914221944B1FBF2F18900C16366
:100F900010498163022141771A6843F6F0718A4350
:100FA000D0E900142143D0E902452C4321430469D0
:100FB000214344692143846921431143196000217D
:100FC0004163012242770177084630BD012030BDE0
:100FD000F8FFFDBF0000024070B5044690F8200005
:100FE000002501280CD0012084F8200094F821600D
:100FF0000020012E06D084F820000225284670BD6E
:10100000022070BD022684F82160A0632068066873
:1010100026F0010606602046FFF7E2FBE06A0028A2
:101020002068016802D041F00E0106E021F00401C1
:1010300001602068016841F00A01016020680168D0
:1010400041F001010160D9E72DE9F84FDFF8B891CF
:10105000002409F1040A0AF1040B23460F270BF1BF
:10106000040EC9E00125A5402A40AA427DD1674E61
:10107000D1F804C0ACEB0608B44532D014DCBCF1A6
:10108000030F3AD009DCBCF1000F2AD0BCF1010FEC
:101090001CD0BCF1020F31D11DE0BCF1110F17D0F3
:1010A000BCF1120F2AD119E0B8F5881F19D006DC5F
:1010B000B8F5803F15D0B8F5801F1FD111E0B8F505
:1010C000001F0ED0B8F5041F18D10AE0CB6815E058
:1010D000CB681B1D12E0CB6808330FE0CB680C33E4
:1010E0000CE08B682BB1012B4FF0080303D0456156
:1010F00004E0042302E0056100E00023FF2A01D898
:10110000064601E000F104064FEA840501D9A5F185
:101110002005D6F8008007FA05FC28EA0C0803FA37
:1011200005F548EA0508C6F800804D68ED0062D56F
:10113000374DAE6946F00106AE61AD6924F0030695
:1011400005F001050095334D06EB050CDCF8085061
:10115000A607360F07FA06F825EA0805DFF8B88073
:10116000404503D14FF0000817E044E0DFF8AC80C1
:10117000404502D14FF001080FE0DFF8A480404560
:1011800002D14FF0020808E0DFF89880404502D114
:101190004FF0030801E04FF0040808FA06F848EAA7
:1011A0000508CCF808804D68D9F80060ED034D467D
:1011B00001D5164300E096432E604D68DAF80060D2
:1011C000AD03554601D5164300E096432E604D68A9
:1011D000DBF80060ED025D4601D5164300E0964362
:1011E0002E604D68DEF80060AD02754601D51643ED
:1011F00000E096432E60641C0D682A46E5407FF4AB
:1012000031AFBDE8F88F000000040140000011106C
:10121000001002400000014000080140000C0140A5
:101220000010014000140140014880687047000030
:10123000C80000200248816802781144816070472C
:10124000C8000020074810B5016841F01001016096
:10125000032000F075F8002000F006F800F024F8F4
:10126000002010BD0020024070B50D4D04464FF423
:101270007A712878B1FBF0F00A490968B1FBF0F007
:1012800000F0C6FB48B9102C07D200222146501EA0
:1012900000F036F800206C6070BD012070BD0000C9
:1012A000C8000020D40000200C4808B5816941F036
:1012B00001018161816901F001010091C16941F081
:1012C0008051C161C06900F08050009004484168BD
:1012D00021F0E06141F00071416008BD0010024062
:1012E00000000140002809DB00F01F0201219140AD
:1012F0004009800000F1E020C0F8001170470000B4
:10130000F0B40E4B1B680C46C3F30223C3F1070570
:10131000042D00D90425191D072901D2002300E05E
:10132000DB1E012606FA05F1491E214099409E4028
:10133000761E16403143F0BC01F080B90CED00E0A0
:10134000064900F0070208684FF6FF03184040EA1C
:101350000220034A10430860704700000CED00E0D3
:101360000000FA0510B529A401461DCC86B08DE811
:101370001D002AA02A4C006804900020012923D0D7
:1013800002293AD010291DD161682268D20119D5ED
:10139000C1F38342C9031DF8020009D5616804AA9C
:1013A000C1F34041515C1F4AB2FBF1F1484301E0F7
:1013B0001D4948436168490204D440005FF00301BD
:1013C000B0FBF1F006B010BD226AC2F30121012981
:1013D00003D1920701D5C803F4E7022905D1626A57
:1013E000920702D549F64040ECE70329EAD121688B
:1013F0008903E7D54FF22440E4E700F033F9616850
:10140000C1F38131491C4900DAE7000002030405F9
:10141000060708090A0B0C0D0E0F10100102000040
:101420000010024000127A0000093D002DE9F84347
:1014300005460078354CC00754D0E0690026C0004E
:1014400008D4E06940F08050E061E069012600F0D6
:10145000805000902E480168C90512D4016880466A
:1014600041F480710160FFF7DFFE074605E000BF31
:10147000FFF7DAFEC01B642823D8D8F80000C005A7
:10148000F6D5206A10F4407021D0A98801F440718B
:1014900081421CD0206A1F49012220F440700A605A
:1014A00000220A602062C00711D0FFF7BDFE074688
:1014B00041F2883808E000BFFFF7B6FEC11B414586
:1014C00002D90320BDE8F883206A8007F4D5206A9A
:1014D000696820F44070084320621EB1E06920F082
:1014E0008050E0612878800705D56068A96820F4FD
:1014F0004040084360602878C00605D56068E96808
:1015000020F48000084360600020DBE70010024008
:1015100000700040400442422DE9F0470F460500AC
:1015200061D0434E306800F00700B84209D23068FD
:1015300020F0070038433060306800F00700B84200
:1015400051D128683B4C810712D5400703D560680C
:1015500040F4E06060602878000703D5606840F4DC
:10156000605060606068A96820F0F0000843606027
:101570002878C00728D06868012810D02168022880
:1015800010D0890700292EDA616821F00301014398
:101590006160FFF749FE804641F288390DE021681D
:1015A0008903EFE78901EDE7FFF73EFEA0EB0801B5
:1015B000494502D90320BDE8F0876068696800F0FA
:1015C0000C00B0EB810FEFD1306800F00700B8429B
:1015D0000BD9306820F0070038433060306800F0E5
:1015E0000700B84201D00120E5E72878400705D57B
:1015F0006068E96820F4E0600843606028780007CC
:1016000006D56068296920F4605040EAC100606036
:1016100000F038F86168084AC1F30311515CC84012
:101620000649086006480068FFF71EFE0020C2E772
:101630000020024000100240A4280008D40000202E
:10164000CC0000200448054900684968044AC1F3F9
:101650000221515CC8407047D400002000100240B5
:10166000B42800080448054900684968044AC1F3E1
:10167000C221515CC8407047D400002000100240D5
:10168000B428000812A185B00FC98DE80F0014A07E
:10169000144A006804905168134801F00C03042BAD
:1016A00010D0082B0ED1C1F38343C9031DF80300EA
:1016B0000AD5516804AAC1F34041515C0A4A50431B
:1016C000B0FBF1F005B0704708494843FAE7000065
:1016D00002030405060708090A0B0C0D0E0F101073
:1016E000010200000010024000127A0000093D00D3
:1016F0002DE9F84F040070D02078C04DC00749D0C4
:101700006868C0F38100012807D06868C0F38100D1
:10171000022809D16868C00306D52868800339D536
:1017200060680028E7D035E06068B0F5803F0BD0F6
:1017300010B1B0F5A02F11D0286820F480302860B7
:10174000286820F4802002E0286840F48030286077
:10175000606890B1FFF768FD06460AE0286840F42B
:1017600080202860F0E700BFFFF75EFD801B642843
:1017700073D828688003F7D50CE0FFF755FD0646BF
:1017800005E000BFFFF750FD801B6428F0D82868F3
:101790008003F7D420789A4E80074FF001094FF06C
:1017A000000839D5686810F00C0F07D06868C0F3DE
:1017B0008100022809D16868C00306D42868800720
:1017C00014D52069012808D110E02069B0B1C6F80D
:1017D0000090FFF729FD074605E00AE1FFF724FD29
:1017E000C01B0228C4D828688007F7D5286861691B
:1017F00020F0F80040EAC10028600DE0C6F8008043
:10180000FFF712FD074604E0FFF70EFDC01B02289C
:1018100023D828688007F7D4207800072CD579488A
:10182000A169D9B1C0F80090FFF7FEFC074604E0BB
:10183000FFF7FAFCC01B02280FD8686A8007F7D5AB
:1018400071484FF4FA510068B0FBF1F0009000BF0E
:101850000098411E0091FAD20EE080E0C0F80080AE
:10186000FFF7E2FC074604E0FFF7DEFCC01B02289E
:1018700075D8686A8007F7D42078400760D5E86992
:101880000027C00008D4E86940F08050E861E869AA
:10189000012700F0805000905C480168C90513D40E
:1018A0000168834641F480710160FFF7BDFC824608
:1018B00006E000BFFFF7B8FCA0EB0A0064284ED892
:1018C000DBF80000C005F5D5E06801280AD008B1B2
:1018D000052813D0286A20F001002862286A20F029
:1018E000040002E0286A40F001002862E06841F24A
:1018F000883B98B1FFF798FC82460BE0286A40F0DD
:1019000004002862EEE700BFFFF78EFCA0EB0A019F
:1019100059455AD8286A8007F6D50CE0FFF784FCB1
:10192000824605E0FFF780FCA0EB0A0159454CD840
:10193000286A8007F6D41FB1E86920F08050E8617A
:10194000E06988B36968C1F38101022944D00228A3
:10195000C6F8608004D0FFF767FC044638E034E046
:10196000FFF762FC074604E0FFF75EFCC01B02289D
:101970002BD828688001F7D4206AB0F5803F05D1C4
:101980006868A16820F4003008436860D4E9080161
:101990000843696821F4741108436860C6F86090D0
:1019A000FFF742FC044606E025E000BFFFF73CFCE1
:1019B000001B022809D828688001F7D51BE000BF6A
:1019C000FFF732FC001B022802D90320BDE8F88F84
:1019D00028688001F4D40EE00128F7D06868226AF4
:1019E00000F48031914204D1616A00F470108842A1
:1019F00001D00120EAE70020E8E7000000100240E3
:101A00000000424280044242D400002000700040A6
:101A100010B5401EB0F1807F01D3012010BD4FF002
:101A2000E02460610F21601700F008FE0020A06133
:101A300007202061002010BD7047704770B590F8F6
:101A40003C20012A26D0012480F83C40022280F864
:101A50003D2003685A689D6822F070060A68324388
:101A60005A600D4B02689A4208D0B2F1804F05D0FF
:101A70000A4B9A4202D00A4B9A4204D1496825F097
:101A800080031943916080F83D40002180F83C10AC
:101A9000084670BD022070BD002C014000040040CB
:101AA0000008004010B5040003D094F83D0010B1C8
:101AB00007E0012010BD002084F83C00204600F023
:101AC0001FF8022084F83D00211D206800F048FC2A
:101AD000012084F8460084F83E0084F83F0084F832
:101AE000400084F8410084F8420084F8430084F800
:101AF000440084F8450084F83D00002010BD00003B
:101B000008B500680B49884212D10B48C16941F001
:101B10000201C161C069002200F00200009011467C
:101B20001D20FFF7EDFBBDE808401D20FFF7DABBE5
:101B300008BD0000000400400010024090F83D1075
:101B4000012901D001207047022180F83D10016871
:101B5000CA6842F00102CA6000680B49884208D096
:101B6000B0F1804F05D00949884202D00849884227
:101B700004D1816801F00701062903D0016841F012
:101B80000101016000207047002C0140000400406A
:101B90000008004070B5044690F83C00012817D0BA
:101BA000012584F83C50022084F83D0020688268BA
:101BB00022F0770222F47F4282600868502830D0F9
:101BC0000DDC20284DD005DC98B310283BD148E02F
:101BD000022070BD302844D0402834D139E060283C
:101BE00028D0702806D0B0F5805F2CD0B0F5005F0B
:101BF00029D10AE0CB68D1E90121206800F0E6FB99
:101C00002068816841F0770109E0CB68D1E90121C2
:101C1000206800F0DBFB2068816841F4804181602E
:101C200011E0CA684968206800F0E2FB5021206892
:101C300007E016E0CA684968206800F0EAFB602106
:101C4000206800F0CDFB84F83D50002084F83C0073
:101C500070BDCA684968206800F0CAFB402120684E
:101C6000EFE7226801461046EBE7704770B504467F
:101C7000006801694FF00005C943890715D4C168A0
:101C8000C943890711D4E91E01610120207720682A
:101C900080698007204602D0FFF7E7FF04E000F0EC
:101CA00098F8204600F096F8257720680169C94326
:101CB000490717D4C168C943490713D46FF0040119
:101CC0000161022020772068806910F4407F20465F
:101CD00002D0FFF7CAFF04E000F07BF8204600F0D6
:101CE00079F8257720680169C943090716D4C168C6
:101CF000C943090712D46FF008010161042020775D
:101D00002068C0698007204602D0FFF7AEFF04E0DC
:101D100000F05FF8204600F05DF825772068016943
:101D2000C943C90617D4C168C943C90613D46FF0A3
:101D300010010161082020772068C06910F4407FFD
:101D4000204602D0FFF791FF04E000F042F8204661
:101D500000F040F8257720680169C943C90708D118
:101D6000C168C943C90704D1891E0161204600F03A
:101D700033F820680169C943090609D4C168C94319
:101D8000090605D46FF0800101612046FFF754FE7B
:101D900020680169C943490609D4C168C943490695
:101DA00005D46FF040010161204600F057F820682B
:101DB0000169C94389060BD4C168C943890607D4A0
:101DC0006FF0200101612046BDE87040FFF735BE8D
:101DD00070BD704770470000F8B51449884223D1A0
:101DE000042213491348FEF74DFF134F104D0024F2
:101DF000A7F1080655F82400FEF73EFB014604EB68
:101E0000440007EB001000F0EFFCFEF73AFB26F869
:101E10001400641C042CEDDB70880090D5E90013DD
:101E2000328806A000F0FAFBF8BD00006001002037
:101E3000DC000020EC000020080000206164313D3F
:101E400025642C206164323D25642C6164333D257A
:101E5000642C206164343D25642C20007047704759
:101E600070B5026804461068D168536910F00F0F0E
:101E700052D003F0010501F490762E435FD0C207E3
:101E800005D0CA0503D5E26B42F00102E2634207C6
:101E900005D5DA0703D0E26B42F00202E263820763
:101EA00005D5DA0703D0E26B42F00402E2630207D1
:101EB00007D501F020022A4303D0E26B42F008026A
:101EC000E263E26B002A33D0800604D5880602D58F
:101ED000204600F0C6FA20684069E16BC0F380102C
:101EE000090700D428B3204600F0ADFA2068416904
:101EF00049061AD5416921F040014161606BA0B1EA
:101F00002D494163606BFEF743FF002810D0606BE2
:101F1000416BBDE870400847830610D58B060ED58F
:101F20002046BDE8704000F09CBA2046FFF797FFBE
:101F300070BD2046FFF793FF0020E06370BD0306ED
:101F40002BD50B0629D594F839002128F6D1A068A5
:101F5000B0F5805F01D12069B0B1206A411C2162D7
:101F6000216800784860E08C401E0004000CE0848A
:101F7000E4D12068C16821F08001C1602068C16897
:101F800041F04001C16070BD206A0088C0F30800C4
:101F90005060206A801C2062E5E74006F3D54806C1
:101FA000F1D5D168204621F04001D160202184F88C
:101FB000391000F0D0F870BD3724000870B5040067
:101FC00004D094F83900002510B106E0012070BD5E
:101FD00084F83850204600F023F8242084F8390093
:101FE0002068C16821F40051C160204600F080FAE9
:101FF0002068016921F4904101612068416921F064
:102000002A0141612068C16841F40051C160E56363
:10201000202084F8390084F83A00002070BD0000C8
:1020200030B585B0002400940194029403940068B4
:10203000184988422CD11848C16941F48021C161F6
:10204000C16901F480210491816941F00801816135
:102050008069124D00F0080004904FF480600090F9
:10206000022001900320039069462846FEF7ECFF0A
:10207000E814CDE90004694628460294FEF7E4FF1F
:10208000002211462720FFF73BF92720FFF72AF906
:1020900005B030BD0048004000100240000C014077
:1020A000704700002DE9F843044690F839001F46B8
:1020B00016460D4620284CD1C5B1BEB194F8380063
:1020C000012846D0012084F838004FF00008C4F8F9
:1020D0003C80212084F83900FFF7A6F8A6848146C9
:1020E000E684A068B0F5805F03D004E00120BDE87D
:1020F000F883206928B12E465FF0000584F8388007
:102100000EE00026FAE78021204600F04DFAA0B943
:10211000AEB116F8010B21684860E08C401EE084E7
:10212000E08C4B464FF0000200970028EBD14FF0B7
:102130004001204600F038FA30B10320D7E735F8E7
:10214000020BC0F30800E6E7202084F839000020E5
:10215000CDE70220CBE77047FEE70000FEB5002484
:102160002048009401941E49029401608915816001
:1021700004730475042505614FF460214460C16156
:10218000FEF7A0FC08B1FEF741FB0126CDE90046B1
:10219000694614480294FEF7A1FB08B1FEF736FB2E
:1021A0000224CDE9006469460E48FEF797FB08B1AA
:1021B000FEF72CFB0094032469460A480194FEF7BD
:1021C0008DFB08B1FEF722FB69460648CDE90045C4
:1021D000FEF784FB002801D0FEF718FBFEBD0000CF
:1021E00000240140EC000020094808B5416941F095
:1021F000010141614069002200F001000090114698
:102200000B20FFF77DF8BDE808400B20FFF76AB808
:10221000001002400D4808B5816941F0200181613C
:10222000816901F020010091816941F0040181611F
:10223000816901F004010091816941F00801816127
:10224000806900F00800009008BD00000010024006
:1022500010B586B0002417480094019402940394AA
:1022600004941349059401604F21C0E9011440F220
:10227000CF71C0E903148461FFF714FC08B1FEF7C5
:10228000C5FA4FF48050009069460A48FFF782FC77
:1022900008B1FEF7BBFA049404A906480594FFF7B9
:1022A000CDFB002801D0FEF7B1FA06B010BD00004A
:1022B00000040040600100200C4810B50A4901608C
:1022C0004FF4E1314160002181600C22C160C0E91E
:1022D00004128161C161FFF771FE002803D0BDE8DF
:1022E0001040FEF793BA10BD00480040A80100203E
:1022F000FEE7704770477047FEF79CBF30B593B05C
:1023000028216846FDF725FF14210AA8FDF721FFC3
:10231000002401200F9402250490009510201194B0
:1023200005901094129407946846FFF7E1F90F2086
:10233000CDE90A040C940D9400210AA80E94FFF72D
:10234000EBF80FA80F951194FFF770F813B030BD9C
:10235000704700000148FFF789BC000060010020C1
:10236000F0B50268164B174C174D4FF08047984256
:1023700005D0B84203D0A04201D0A84203D122F038
:1023800070064A683243984205D0B84203D0A04252
:1023900001D0A84203D122F44074CA6822434C6998
:1023A00022F08002224302608A68C2620A68826266
:1023B000984201D10969016301214161F0BD00002A
:1023C000002C0140000400400008004010B5846863
:1023D00042EA032224F47F440A432243826010BD70
:1023E000826822F070020A4342F007018160704760
:1023F00010B5036A046A24F001040462846924F0BD
:10240000F00444EA021423F00A020A4384610262DF
:1024100010BD10B5036A23F0100303628369046AD8
:1024200023F4704343EA023224F0A00343EA01118B
:102430008261016210BD10B5406A0021C185C1846E
:10244000FFF70DFD10BD0168CA6822F49072CA60E2
:1024500001684A6922F001024A61202180F83A109D
:10246000704710B590F83A10222901D0022010BD13
:1024700082684FF480539A4201D1016921B1816A87
:102480009A421BD04AB10AE00268816A5268C2F3DC
:1024900008020A80816A891C08E0026972B1026838
:1024A000526802F07F020A70816A491C8162C18D04
:1024B000491E0904090CC18503D016E00268526860
:1024C000F1E70168CA6822F02002CA600168CA68A0
:1024D00022F48072CA6001684A6922F001024A61EE
:1024E000202180F83A10FFF7DBFD002010BD00002E
:1024F00070B5044600680169E26821F44051114357
:1025000001612169A0680843616908432168CA68BC
:1025100041F20C639A430243CA6020684169A26990
:1025200021F44071114341611E492068884202D163
:10253000FFF798F801E0FFF785F800EBC00101EB29
:102540000012606864218000B2FBF0F3B3FBF1F38A
:102550006FF018067343B2FBF0F5B2FBF0F605EB33
:102560008305322303EB0515B5FBF1F5B6FBF1F658
:1025700005F0F00505EB0615B2FBF0F6B2FBF0F046
:10258000B0FBF1F06FF01802504306EB800003EB54
:102590000010B0FBF1F0216800F00F0028448860C3
:1025A00070BD0000003801402DE9F0419846174603
:1025B0000E460446069D1DE0681C1BD02DB1FEF79B
:1025C00033FEA0EB0800A84214D92068C16821F4AA
:1025D000D071C1602068416921F001014161202072
:1025E00084F8390084F83A00002084F83800032089
:1025F000BDE8F0812068006836EA000004D00020C1
:10260000B842D9D00020F3E70120F9E70148FFF7ED
:1026100027BC0000A8010020FEE700000FB4054B16
:1026200010B503A9044A029800F028F810BC5DF820
:1026300014FB0000D1270008D80000200907090E6C
:10264000002804DB00F1E02080F80014704700F05F
:102650000F0000F1E02080F8141D704702E008C868
:10266000121F08C1002AFAD170477047002001E00C
:1026700001C1121F002AFBD1704700002DE9FF4F56
:1026800089B09B460446002506E025280BD05A4613
:102690000B999047641C6D1C20780028F5D10DB073
:1026A0002846BDE8F08F0027B8460122474900E0E0
:1026B000074314F8013F203B02FA03F00842F7D128
:1026C00020782E2819D114F8010F47F004072A2882
:1026D0000ED06FF02F022078A0F1300109290CD81C
:1026E00008EB880102EB410100EB0108641CF2E7F2
:1026F0000A98641C50F8048B0A9020780028CED0E9
:10270000642808D0692806D075281ED05A460B992F
:1027100090476D1C58E00A994FF00A0901C90A91C7
:10272000002802DA40422D2102E0390504D52B2190
:102730008DF82010012103E0F90704D02021F7E7EC
:102740008A4608AE0DE00021FAE70A994FF00A091F
:1027500001C90A91F7E74946FDF7BFFE303106F897
:10276000011D0028F7D1ADEB060000F12009780724
:1027700001D44FF00108C84502DDA8EB090000E0D4
:1027800000208046002706E008A85A46C05D0B9945
:1027900090476D1C7F1C5745F6DB04E030205A46FD
:1027A0000B9990476D1CB8F10001A8F10108F5DC08
:1027B00005E016F8010B5A460B9990476D1CB9F1CC
:1027C0000001A9F10109F4DC641C65E70928010096
:1027D00013B54FF6FF73012269460248FFF762FC0A
:1027E00000981CBDA80100202DE9F05F04460F46AB
:1027F000D4E90001D4E90823FDF7B6FCC4E90201DD
:10280000D4E90A230E460546FDF7AEFC02460B4608
:1028100028463146FDF7C1FDC4E9060182468B46D4
:102820003846FDF747FED4E9047399463A46FDF76A
:102830003CFD52465B46FDF73EFD3A464B46FDF7F2
:1028400093FCC4E904010746884652465B460020D3
:102850000649FDF72AFD2A463346FDF72CFDC4E95B
:10286000000138464146BDE8F09F00000000F03FFF
:10287000FEF7E8FCFFF742FDFFF7CCFCFFF7B4FCE6
:10288000FFF76CFCFFF7E4FCFFF716FD0348FFF7CA
:1028900055F90348FDF7BCFFFEE70000600100208A
:1028A000EC00002000000000000000000102030412
:1028B000060708090000000001020304DC280008E4
:1028C00000000020DC0000005C260008B829000899
:1028D000DC0000200C0500006C2600080000000051
:1028E000000000009A9999999999C93F0000000049
:1028F0000000F03F000000000000000000000000A9
:1029000000000000FCA9F1D24D62503FC74B37894F
:102910004160E13F9A9999999999C93F0000000057
:102920000000F03F00000000000000000000000078
:1029300000000000FCA9F1D24D62503FC74B37891F
:102940004160E13F9A9999999999C93F0000000027
:102950000000F03F00000000000000000000000048
:1029600000000000FCA9F1D24D62503FC74B3789EF
:102970004160E13F9A9999999999C93F00000000F7
:102980000000F03F00000000000000000000000018
:1029900000000000FCA9F1D24D62503FC74B3789BF
:1029A0004160E13F01000000100000000000000055
:0829B0000024F4000000000007
:04000005080000ED02
:00000001FF
