:020000040800F2
:100000003805002001010008F72800086B1B0008D4
:10001000F5280008CF060008612A0008000000004B
:10002000000000000000000000000000FB280008A5
:10003000E906000800000000F9280008FD28000873
:100040001B0100081B0100081B0100081B01000820
:100050001B0100081B0100081B0100081B01000810
:100060001B0100081B0100081B0100081B01000800
:100070001B0100081B0100081B0100081B010008F0
:10008000D1060008DD0600081B0100081B0100085E
:100090001B0100081B0100081B0100081B010008D0
:1000A0001B0100081B0100081B0100081B010008C0
:1000B0001B0100081B0100081B0100086D1B000844
:1000C0001B0100081B0100081B0100081B010008A0
:1000D0001B0100081B0100081B0100081B01000890
:1000E0001B0100081B0100081B010008DFF80CD0F1
:1000F00000F0BAFA004800474136000838050020F1
:100100000648804706480047FEE7FEE7FEE7FEE7B1
:10011000FEE7FEE7FEE7FEE7FEE7FEE7432900080D
:10012000ED000008202A04DB203A21FA02F0002129
:10013000704721FA02F3D040C2F1200291400843F7
:100140001946704740EA01039B0703D009E008C93C
:10015000121F08C0042AFAD203E011F8013B00F88C
:10016000013B521EF9D27047D2B201E000F8012BD8
:10017000491EFBD270470022F6E710B513460A4627
:1001800004461946FFF7F0FF204610BD2DE9FE4F4B
:1001900081EA030404F0004421F0004100944FF090
:1001A000000B23F0004350EA01045ED052EA03043E
:1001B0005BD0C3F30A54C1F30A552C44A4F2F334C0
:1001C0000194A0FB0254C1F3130141F48011C3F365
:1001D000130343F4801301FB024400FB034E840A23
:1001E000970A44EA815447EA8357A4FB07680295BB
:1001F0008D0A05FB07854FEA932C04FB0C54270559
:10020000029D4FEA065847EA1637B5EB08056EEB34
:10021000070C870E920E47EA811742EA8312A7FB6A
:100220000201B6EB0B0164EB00042B0D43EA0C3327
:100230005E1844EB1C50DA465146E7FB0201C5F359
:1002400013044FEA0B3343EA14534FEA0432019C80
:1002500043EA0603A4F10C040294009CCDE900B427
:1002600000F0DCF803B0BDE8F08F00200146F9E7AC
:100270002DE9F04D81EA030404F0004B21F0004524
:1002800014464FF0000A23F0004150EA050220D046
:1002900054EA01021DD0C5F30A570246C5F3130301
:1002A000C1F31300C1F30A5640F4801543F48013E0
:1002B000A7EB0608101BD64608F2FD3873EB0500C5
:1002C00002D308F1010801E092185B41B8F1000F78
:1002D00003DA00200146BDE8F08D00204FF48011C4
:1002E000064684460EE0171B73EB050705D3121B69
:1002F00063EB050306434CEA010C49084FEA300062
:1003000092185B4150EA0107EDD152EA030012D086
:1003100082EA040083EA0501084305D0101BAB41C3
:1003200006D20122002306E000224FF0004302E043
:100330006FF0010253101AEB06004CEB085110EB62
:100340000A0041EB0B01BDE8F04D00F058B80EB5C6
:10035000C10F80EAE0700844CA07002140F233432D
:100360008DE80E000A460B4600F058F803B000BDB9
:1003700030B50B46014600202022012409E021FA75
:1003800002F59D4205D303FA02F5491B04FA02F572
:100390002844151EA2F10102F1DC30BD2DE9F05F09
:1003A0000546002092469B468846064681464024E4
:1003B0001BE02846414647462246FFF7B3FE534618
:1003C0005A46C01A914110D311461846224600F0F1
:1003D0005DF92D1A67EB01084F46224601200021E6
:1003E00000F054F917EB00094E41201EA4F101045E
:1003F000DFDC484631462A464346BDE8F09F10B54B
:10040000141E73F1000408DA401C41F10001921837
:100410005B411A4301D120F0010010BD2DE9F04DE0
:1004200092469B4611B1B1FA81F202E0B0FA80F235
:100430002032904600F02AF904460F4640EA0A00AE
:1004400041EA0B0153465A46084313D0114653EA7A
:10045000010019D0C8F140025046FFF763FE05467F
:100460000E4650465946424600F010F9084305D062
:10047000012004E020463946BDE8F08D0020054308
:1004800046EAE0762C4337430A986305E40AA0EB7A
:1004900008000022FD0A44EA47540A3002D5002031
:1004A0000146E9E7010510196941DDE90845001930
:1004B0006941BDE8F04DA2E72DE9FE4F804681EA93
:1004C0000300C00F0C46009021F0004123F00045CE
:1004D000B8EB0200A94105D24046214690461C4691
:1004E0000B46024623F00040104347D0270DC7F3C8
:1004F0000A00C3F30A510290401A019040286BDAB7
:10050000C3F3130040F4801B0098924620B10023EF
:10051000D2EB030A63EB0B0B01985946C0F1400282
:10052000504600F0B3F806460D4650465946019A2B
:1005300000F0BBF810EB08006141002487EA11527B
:1005400084EAE7731A4340D0009A62B3019A012A01
:100550004FEA075215DC001B61EB02014FF000422D
:1005600002EA0752CDE90042001C41F580113246F3
:100570002B46FFF753FF03B0BDE8F08F40462146FE
:10058000F9E7001B61EB0201001C41F58013001824
:100590005B412018A2F5001747EB030140EAD57034
:1005A000B6196D4111E06D084FEA360645EAC0758F
:1005B0004FEA0752001B61EB0201001C41F580115C
:1005C00049084FEA30000019514132462B4603B02A
:1005D000BDE8F04FFFF713BF009801224000002351
:1005E000D0EB020263EBE073009821464FEAE0741F
:1005F000B8EB000061EB0401E9E783F000435BE73F
:1006000081F0004158E7C1F30A52C1F3130140F2EF
:10061000FF3341F480119A4202DA0020014670470C
:1006200040F233439A42A2F2334202DC5242FFF7D5
:1006300079BD00F02BB8000030B5041E71F1000444
:1006400004DB4FF00044404264EB0101141E73F1DF
:10065000000405DB1C464FF00043524263EB0403E9
:10066000994208BF904230BD064C074D06E0E06855
:1006700040F0010394E8070098471034AC42F6D3E9
:10068000FFF738FD1C3700083C370008202A04DB40
:10069000203A00FA02F1002070479140C2F1200395
:1006A00020FA03F3194390407047202A06DBCB174A
:1006B000203A41FA02F043EAE07306E041FA02F31D
:1006C000D040C2F120029140084319467047FEE72E
:1006D000014800F05BB80000B4000020014800F0C1
:1006E00055B80000700000207047704710B590F8B2
:1006F00021100024022903D00421816301243DE05C
:1007000001680A6822F00E020A6001680A6822F095
:1007100001020A601A4A0168914201D1012121E0D7
:10072000174A1432914201D110211BE0144A283299
:10073000914201D1891515E0114A3C32914201D113
:1007400089140FE00E4A5032914202D14FF48031A9
:1007500008E00B4A6432914202D14FF4801101E06B
:100760004FF08071064A083A5160012180F821104B
:10077000002180F82010416B01B18847204610BD50
:100780000800024090F82100704700002DE9F05F5A
:10079000C16B0C6801680B68D0F840C0042202FAF3
:1007A0000CF2494DDFF824A1494E4A4FDFF828B139
:1007B000DFF828E122422CD05A072AD50A6892068F
:1007C00003D40A6822F004020A600168A94201D138
:1007D000042219E0514501D1402215E0B14202D175
:1007E0004FF4806210E0B94202D14FF480420BE036
:1007F000594502D14FF4802206E0714502D14FF4F1
:10080000800201E04FF080622F4908394A60C16AD6
:100810003BE04FF0020808FA0CF818EA040F4FF01A
:1008200000094FF0010235D05FEA837832D50B68BA
:100830009B0605D40B6823F00A030B6080F8212087
:100840000168A94201D1022219E0514501D12022BB
:1008500015E0B14202D14FF4007210E0B94202D16A
:100860004FF400520BE0594502D14FF4003206E03C
:10087000714502D14FF4001201E04FF000721249AD
:1008800008394A6080F82090816A00291AD0BDE8B2
:10089000F05F0847082505FA0CF5254212D01B0722
:1008A00010D50B6823F00E030B6090F84010C36B5B
:1008B00002FA01F15960826380F8212080F82090CB
:1008C000016BE2E7BDE8F09F080002401C00024017
:1008D0003000024044000240580002406C000240D8
:1008E00030B528B308C8134914221944B1FBF2F1FA
:1008F0008900C16310498163022141771A6843F678
:10090000F0718A43D0E900142143D0E902452C4319
:1009100021430469214344692143846921431143EC
:10092000196000214163012242770177084630BDFA
:10093000012030BDF8FFFDBF0000024070B5044645
:1009400000F0FEF80546601C02D00448007804441C
:1009500000F0F6F8401BA042FAD370BD080000205A
:100960002DE9F84FDFF8B891002409F1040A0AF1E3
:10097000040B23460F270BF1040EC9E00125A54007
:100980002A40AA427DD1674ED1F804C0ACEB0608DC
:10099000B44532D014DCBCF1030F3AD009DCBCF111
:1009A000000F2AD0BCF1010F1CD0BCF1020F31D1D5
:1009B0001DE0BCF1110F17D0BCF1120F2AD119E0C4
:1009C000B8F5881F19D006DCB8F5803F15D0B8F50A
:1009D000801F1FD111E0B8F5001F0ED0B8F5041F1D
:1009E00018D10AE0CB6815E0CB681B1D12E0CB687C
:1009F00008330FE0CB680C330CE08B682BB1012B74
:100A00004FF0080303D0456104E0042302E00561D0
:100A100000E00023FF2A01D8064601E000F10406A9
:100A20004FEA840501D9A5F12005D6F8008007FA20
:100A300005FC28EA0C0803FA05F548EA0508C6F89B
:100A400000804D68ED0062D5374DAE6946F0010675
:100A5000AE61AD6924F0030605F001050095334D44
:100A600006EB050CDCF80850A607360F07FA06F867
:100A700025EA0805DFF8B880404503D14FF00008AB
:100A800017E044E0DFF8AC80404502D14FF00108A8
:100A90000FE0DFF8A480404502D14FF0020808E0E3
:100AA000DFF89880404502D14FF0030801E04FF095
:100AB000040808FA06F848EA0508CCF808804D68EA
:100AC000D9F80060ED034D4601D5164300E096438A
:100AD0002E604D68DAF80060AD03554601D5164327
:100AE00000E096432E604D68DBF80060ED025D4645
:100AF00001D5164300E096432E604D68DEF8006095
:100B0000AD02754601D5164300E096432E60641C85
:100B10000D682A46E5407FF431AFBDE8F88F00004C
:100B200000040140000011100010024000000140CC
:100B300000080140000C0140001001400014014079
:100B40000148806870470000080000207047704727
:100B50002DE9F041026800245168C76A90F83E50C0
:100B600090F83D60102D1CD0402D1AD0036C002B46
:100B70007ED053694FF02805DB439F0779D4CF43DC
:100B8000BF0576D4016C01B1946990F83D30002125
:100B90009D430B466ED0C91E516180F83C30BDE8C4
:100BA000F081946953694FF42A0CDB435FEAC37EFA
:100BB0004FF02A4604D06745F1D0B742EFD010E09D
:100BC000CF43BF050DD4C16A614501D1012103E0C6
:100BD000C16AB14201D10821C162BDE8F04101F012
:100BE000CFBB1E0716D4CE43B60513D4416CC9B291
:100BF0001161416B11B9826B002AD0D0896A19B991
:100C0000816B896A0029CAD00068416841F400619B
:100C10004160C4E79E0706D4CE43B60503D4BDE8C1
:100C2000F04101F001BBE443526864074FEA02520D
:100C30001BD4002AB3DB1A0608D4CA43520505D4D4
:100C40005A0705D5BDE8F04101F092BA5A07A6D47B
:100C5000C9438905A3D4102D03D0BDE8F04101F0AC
:100C6000D5BBBDE8F04101F049BA002A97DB02E0AC
:100C700015E029E015E05A0608D4CA43520505D408
:100C80005A0705D5BDE8F04101F000B95A0786D4EE
:100C9000C943890583D4BDE8F04101F08EB8946959
:100CA00067E7556825F480655560E243540700D531
:100CB0000121120601D5828900E0028B80F83C30C8
:100CC00092B2FFF744FF6AE7DC0606D4CC43A405E2
:100CD00003D4BDE8F04101F0E9BB212E27D0292E35
:100CE00025D05C0655D4CC43640552D45B0752D55D
:100CF00090F83D10438D002B8BD01269436A1A7017
:100D0000426A521C4262428D521E4285428D002A26
:100D1000D9D12A29D7D101684A6822F480624A6071
:100D20002221016380F83D5000F032FB37E71C06BA
:100D300023D4CC43640520D45B0720D590F83D1024
:100D4000438D002BBFD0436A1B781361426A521C4B
:100D50004262428D521E4285428D002AB3D129291A
:100D6000B1D101684A6822F480624A60212101639E
:100D700080F83D5000F00DFB11E75B07A3D4C94399
:100D80008905A0D4418D00299DD0416A097811615F
:100D90000AE05B0797D4C943890594D4418D0029A3
:100DA00091D01169426A1170416A491C4162418DBA
:100DB000491E4185F3E67047006C704770B504002A
:100DC00025D094F83D00002520B984F83C502046F9
:100DD00000F076FA242084F83D002068016821F0B4
:100DE000010101602068016841F400410160206850
:100DF000016821F40041016000F0FAFB4D4A61688E
:100E0000914201D84C4900E04C49884201D201206E
:100E100070BD4B492368B0FBF1F15E6826F03F06D8
:100E20000E435E606368934206D94FF4967359434C
:100E30004FF47A73B1FBF3F12368491C1E6A26F064
:100E40003F06314319626168914210D84900401E43
:100E5000B0FBF1F2521CC2F30B02042A01D20420AF
:100E600022E0B0FBF1F0401CC0F30B001CE0A268D4
:100E7000F2B301EBC10303EB0116431EB3FBF6F320
:100E80005B1C43F480431B0549D092B301EBC102C4
:100E900002EB0111401EB0FBF1F0401CC0F30B004F
:100EA00040F4804040F400402168CA694CF6FF736A
:100EB0009A431043C861D4E90710014320680268CF
:100EC00022F0C00211430160D4E90301014320680C
:100ED000826848F2FF339A4311438160D4E90501E7
:100EE00008432168CA6822F0FF021043C86001E08D
:100EF0000EE016E02068016841F001010160256400
:100F0000202084F83D00256384F83E50002070BD09
:100F100001EB4106431EB3FBF6F35B1CB3E7012074
:100F2000C2E701EB4101401EB0FBF1F0401CC0F3F1
:100F30000B00B7E7A086010080841E0000093D0079
:100F400040420F0070477047704700002DE9F84F8E
:100F50000025DDF82890984617468A4604460095F5
:100F6000FFF7EEFD064694F83D0020287AD11923BC
:100F7000012283492046009601F06CFB0028F5D140
:100F800094F83C0001286DD0012084F83C002068D2
:100F90000168C90703D1016841F0010101602068BF
:100FA000016821F400610160222084F83D001020D6
:100FB00084F83E0025646762A4F82A80608D20854D
:100FC0007048E06233464A465146204600F0D2FF60
:100FD00000287DD1208DDFF8B081202768B101285D
:100FE00014D00228206801681ED041F4806101609D
:100FF0002068416980690090B5E020684169816995
:101000000091016841F400710160ACE02068016862
:1010100021F48061016072B62068416981690091A4
:10102000016841F400710AE041F40061016072B6A8
:101030002068416981690091016821F48061016043
:1010400062B690E0032868D801280CD002284B46ED
:101050004FF000024146204600960FD001F0FAFA08
:10106000B0BB10E08AE032464946204601F071FBF1
:1010700070BB20680069616A08706BE001F0EAFAF1
:1010800030BB72B634E02068016821F480610160F1
:1010900072B620680069616A0870606A401C60620C
:1010A000208D401E2085608D401E6085374846F2A9
:1010B000A8110068B0FBF1F0C0EBC00000EB8000AD
:1010C0000090401E009008D020684069C04300E0B6
:1010D00029E040070CD50098F3E744F8305F6773C8
:1010E000A573206940F02000206162B625731AE0E4
:1010F0002068016841F40071016020680069616A3C
:101100000870606A401C6062218D491E2185618DD6
:10111000491E618562B621681AE03246494620467A
:1011200001F017FB10B10120BDE8F88F20680069BD
:10113000616A0870606A401C6062218D491E2185C9
:10114000618D491E618521684A69D24352070AD4DC
:1011500009690170606A401C6062208D401E208514
:10116000608D401E6085208D00287FF46BAF84F871
:101170003D7084F83E5084F83C50D5E70220D3E718
:10118000020010000000FFFF040001001400002016
:101190002DE9F84F1F4690468A460446DDF8289010
:1011A000FFF7CEFC054694F83D0020287FD1192397
:1011B000012240492046009501F04CFA002876D1E2
:1011C00094F83C00012872D0012084F83C0020688B
:1011D0000168C90703D1016841F00101016020687D
:1011E000016821F400610160212084F83D00102095
:1011F00084F83E0000262664C4F824806785608D4C
:1012000020852D48E0622B464A465146204600F094
:1012100027FF90B9206841698069009036E02A462E
:101220004946204601F0C8FA50B1206C042804D188
:101230002068016841F4007101600120BDE8F88F69
:10124000606A216800780861606A401C6062618D94
:10125000491E6185218D491E89B221852268536905
:10126000DB435B070BD451B100781061606A401C0E
:101270006062608D401E6085208D401E20852A465C
:101280004946204601F0C0F90028CED1208D002823
:10129000C5D154F83D0B016841F400710160202074
:1012A00004F81E09E67766770020C7E7FFE702200B
:1012B000C4E70000020010000000FFFF7047704705
:1012C0002DE9F04186B00024064600940194029472
:1012D00003940068294988424CD1294DA86940F0FF
:1012E0000800A861A869694600F008000490C020C1
:1012F000009012200190032003902248FFF730FB5A
:10130000E86940F40010E861E869204D00F400103D
:1013100004901D48C5E900048027C5E902474FF045
:1013200020082C61C5E905482846EC61FFF7D8FA8A
:1013300008B1FFF7DAF9B5636E62144D124844350F
:10134000143801C5102091C5104845F810494430A3
:10135000C5E90548EC61FFF7C3FA08B1FFF7C5F925
:101360007563002211461F206E6200F079F81F207D
:1013700000F068F806B0BDE8F081000000540040BD
:1013800000100240000C014080000240700000206C
:101390007047704702488168027811448160704745
:1013A00008000020074810B5016841F010010160F5
:1013B000032000F075F8002000F006F800F024F893
:1013C000002010BD0020024070B50D4D04464FF4C2
:1013D0007A712878B1FBF0F00A490968B1FBF0F0A6
:1013E00000F0ECFA48B9102C07D200222146501E1A
:1013F00000F036F800206C6070BD012070BD000068
:1014000008000020140000200C4808B5816941F054
:1014100001018161816901F001010091C16941F01F
:101420008051C161C06900F080500090044841685B
:1014300021F0E06141F00071416008BD0010024000
:1014400000000140002809DB00F01F02012191404B
:101450004009800000F1E020C0F800117047000052
:10146000F0B40E4B1B680C46C3F30223C3F107050F
:10147000042D00D90425191D072901D2002300E0FD
:10148000DB1E012606FA05F1491E214099409E40C7
:10149000761E16403143F0BC01F0F4BA0CED00E0CA
:1014A000064900F0070208684FF6FF03184040EABB
:1014B0000220034A10430860704700000CED00E072
:1014C0000000FA052DE9F0470F46050061D0434EB4
:1014D000306800F00700B84209D2306820F00700F9
:1014E00038433060306800F00700B84251D12868B6
:1014F0003B4C810712D5400703D5606840F4E0609B
:1015000060602878000703D5606840F46050606030
:101510006068A96820F0F000084360602878C00780
:1015200028D06868012810D02168022810D08907C7
:1015300000292EDA616821F0030101436160FFF7A1
:10154000FFFA804641F288390DE021688903EFE710
:101550008901EDE7FFF7F4FAA0EB0801494502D94C
:101560000320BDE8F0876068696800F00C00B0EB0C
:10157000810FEFD1306800F00700B8420BD9306816
:1015800020F0070038433060306800F00700B842B0
:1015900001D00120E5E72878400705D56068E968B3
:1015A00020F4E060084360602878000706D5606892
:1015B000296920F4605040EAC100606000F038F80A
:1015C0006168084AC1F30311515CC84006490860CC
:1015D00006480068FFF7F8FE0020C2E7002002403E
:1015E0000010024004370008140000200C00002006
:1015F0000448054900684968044AC1F30221515C66
:10160000C840704714000020001002401437000842
:101610000448054900684968044AC1F3C221515C85
:10162000C840704714000020001002401437000822
:1016300012A185B00FC98DE80F0014A0144A0068EC
:1016400004905168134801F00C03042B10D0082BB0
:101650000ED1C1F38343C9031DF803000AD55168B5
:1016600004AAC1F34041515C0A4A5043B0FBF1F077
:1016700005B0704708494843FAE700000203040533
:10168000060708090A0B0C0D0E0F101001020000CE
:101690000010024000127A0000093D002DE9F84FC9
:1016A000040070D02078C04DC00749D06868C0F3EE
:1016B0008100012807D06868C0F38100022809D1A1
:1016C0006868C00306D52868800339D5606800289B
:1016D000E7D035E06068B0F5803F0BD010B1B0F5D1
:1016E000A02F11D0286820F480302860286820F4CA
:1016F000802002E0286840F480302860606890B163
:10170000FFF71EFA06460AE0286840F480202860A9
:10171000F0E700BFFFF714FA801B642873D828682D
:101720008003F7D50CE0FFF70BFA064605E000BF93
:10173000FFF706FA801B6428F0D828688003F7D4E6
:1017400020789A4E80074FF001094FF0000839D5F4
:10175000686810F00C0F07D06868C0F38100022899
:1017600009D16868C00306D42868800714D52069A9
:10177000012808D110E02069B0B1C6F80090FFF749
:10178000DFF9074605E00AE1FFF7DAF9C01B022896
:10179000C4D828688007F7D52868616920F0F80068
:1017A00040EAC10028600DE0C6F80080FFF7C8F9E4
:1017B000074604E0FFF7C4F9C01B022823D82868B5
:1017C0008007F7D4207800072CD57948A169D9B1D2
:1017D000C0F80090FFF7B4F9074604E0FFF7B0F94E
:1017E000C01B02280FD8686A8007F7D571484FF4EC
:1017F000FA510068B0FBF1F0009000BF0098411E64
:101800000091FAD20EE080E0C0F80080FFF798F96E
:10181000074604E0FFF794F9C01B022875D8686AF0
:101820008007F7D42078400760D5E8690027C0001A
:1018300008D4E86940F08050E861E869012700F0C9
:10184000805000905C480168C90513D40168834644
:1018500041F480710160FFF773F9824606E000BF32
:10186000FFF76EF9A0EB0A0064284ED8DBF8000001
:10187000C005F5D5E06801280AD008B1052813D0C5
:10188000286A20F001002862286A20F0040002E0A3
:10189000286A40F001002862E06841F2883B98B174
:1018A000FFF74EF982460BE0286A40F004002862F8
:1018B000EEE700BFFFF744F9A0EB0A0159455AD8FB
:1018C000286A8007F6D50CE0FFF73AF9824605E072
:1018D000FFF736F9A0EB0A0159454CD8286A800772
:1018E000F6D41FB1E86920F08050E861E06988B360
:1018F0006968C1F38101022944D00228C6F86080DA
:1019000004D0FFF71DF9044638E034E0FFF718F97A
:10191000074604E0FFF714F9C01B02282BD82868FB
:101920008001F7D4206AB0F5803F05D16868A168CE
:1019300020F4003008436860D4E90801084369686E
:1019400021F4741108436860C6F86090FFF7F8F856
:10195000044606E025E000BFFFF7F2F8001B02286E
:1019600009D828688001F7D51BE000BFFFF7E8F829
:10197000001B022802D90320BDE8F88F28688001E7
:10198000F4D40EE00128F7D06868226A00F48031B0
:10199000914204D1616A00F47010884201D00120A4
:1019A000EAE70020E8E700000010024000004242A1
:1019B00080044242140000200070004010B5401E18
:1019C000B0F1807F01D3012010BD4FF0E0246061B1
:1019D0000F21601701F056F80020A0610720206158
:1019E000002010BD70B5040004D094F83900002523
:1019F00010B106E0012070BD84F83850204600F098
:101A000023F8242084F839002068C16821F40051AB
:101A1000C160204600F096FF2068016921F49041E2
:101A200001612068416921F02A0141612068C16893
:101A300041F40051C160E563202084F8390084F846
:101A40003A00002070BD000030B585B0002400943D
:101A500001940294039400681449884224D11448E4
:101A6000816941F480418161816901F4804104917F
:101A7000816941F00401816180690E4D00F004002C
:101A800004904FF400700090022001900320039016
:101A900069462846FEF764FF2815CDE9000469462B
:101AA00028460294FEF75CFF05B030BD00380140C7
:101AB00000100240000801402DE9F843044690F868
:101AC00039001F4616460D4620284CD1C5B1BEB17F
:101AD00094F83800012846D0012084F838004FF0EF
:101AE0000008C4F83C80212084F83900FFF728F86A
:101AF000A6848146E684A068B0F5805F03D004E048
:101B00000120BDE8F883206928B12E465FF000056A
:101B100084F838800EE00026FAE78021204600F0A5
:101B20006DFFA0B9AEB116F8010B21684860E08CDA
:101B3000401EE084E08C4B464FF0000200970028E6
:101B4000EBD14FF04001204600F058FF30B10320A8
:101B5000D7E735F8020BC0F30800E6E7202084F849
:101B600039000020CDE70220CBE7FEE70148FEF771
:101B7000EFBF00001C00002038B5406A002190F83B
:101B80003D202B4B46F2A8141B68B3FBF4F3C3EBC8
:101B9000C30303EB830300933BB15B1E0093036815
:101BA0001B689B0505D5009BF6E7036C43F02003FB
:101BB0000364436B03B19962836B03B19962036859
:101BC0001C6824F480641C604185436B03B1596335
:101BD000836B03B1596303681C6824F001041C6023
:101BE00090F83D402023602C0BD0282434EA0202D8
:101BF0000FD080F83D3080F83E1000BFFFF7DBF8D3
:101C000038BD80F83D3080F83E100164FEF79EFF3D
:101C100038BD0268136843F001031360026813685B
:101C200043F480631360016380F83D40E6E7000001
:101C30001400002070B5044690F83D0094F83E1062
:101C4000102901D0402906D1222804D121680A6830
:101C500022F400620A60282131EA00024FF00005F8
:101C60004FF0200626D021684968090505D4602870
:101C700003D084F83D6084F83E50256320684168B5
:101C8000090537D5416821F400614160606B3D4929
:101C900090F82120012A11D04163606BFEF726FDE8
:101CA00038B32068016821F00101016084F83D60CB
:101CB000606B1CE0256384F83D10DFE7A06B416397
:101CC000A06BFEF713FDA0B120684169C943490626
:101CD00005D40069616A0870606A401C606220680F
:101CE000016821F00101016084F83D60A06B416B47
:101CF000884710E094F83D10602910D04169C9432D
:101D0000490605D40069616A0870606A401C606217
:101D10002046FFF750F8206CC1071CD115E084F86D
:101D20003D6025644169C943490605D40069616A7B
:101D30000870606A401C60622068016821F001013F
:101D400001602046FEF702FFE5E7810703D4410763
:101D500001D4000704D52068416821F4E0614160A6
:101D600094F83D00216C49070BD5282809D1064875
:101D7000E062256384F83D6084F83E502046FFF71A
:101D8000E1F870BD791B00080000FFFF01684A6997
:101D9000D24352050FD46FF480624A61002140F8AB
:101DA000301F202242738173026942F004020261F3
:101DB0000173012070470020704710B5C26A438D3F
:101DC0000168042B06D0438D032B08D0438D022BD2
:101DD0001DD012E04A6822F480624A600CE04B6831
:101DE00023F480634B60042A06D0022A04D00168E1
:101DF0000A6822F480620A6001680969426A117007
:101E0000416A491C4162418D491E418510BD012A2C
:101E100030D0102A2ED0042A30D0022A2ED00A68C0
:101E200042F400720A6001680969426A1170416AED
:101E3000491C4162428D521E4285026812690A7035
:101E4000416A491C4162418D491E418501684A68C9
:101E500022F440724A60202180F83D1090F83E2024
:101E60000021402A80F83E100CD012210163FFF7B8
:101E70006AF810BD0A6822F48062D3E70A6842F467
:101E80008062CFE70163FFF719FA10BD38B590F80B
:101E90003D10222914D1418D032912D90168096905
:101EA000426A1170416A491C4162418D491E418557
:101EB000418D032904D10068416821F480614160AB
:101EC00038BDC26A022AFBD0012901D00029F7D10E
:101ED000274946F2A81300220968B1FBF3F101EB90
:101EE0008101009101682023009C641E009422D08F
:101EF0000C68A405F8D40C6824F480640C600168B4
:101F00004C6824F4E0644C6001680969446A2170FB
:101F1000416A491C4162418D491E418580F83D302E
:101F200090F83E1080F83E2040291DD01221016318
:101F3000FFF709F838BD046C44F0200404644C68D1
:101F400024F4E0644C6001680969446A2170416AC4
:101F5000491C4162418D491E418580F83D3080F821
:101F60003E20FEF728FF38BD0263FFF7A7F938BD12
:101F7000140000202DE9F84F0446C06A1E4693461F
:101F80000D4621680A6842F480620A60082807D07A
:101F9000012805D010F5803F02D0206B112804D114
:101FA0002068016841F4807101604FF001195B46BF
:101FB000002249462046009600F04CFB4FF4007882
:101FC00040B120680068C00501D5C4F840800320F6
:101FD000BDE8F88F2069DFF884A0B0F5804F0FD0FE
:101FE0000620216800EAD51747F0F0000861334663
:101FF0005A460AF10601204600F060FB58BB03E098
:10200000E8B240F001001CE02168E8B20861334604
:102010005A465146204600F051FBE0B9206841691C
:1020200081690091016841F4807101605B46002282
:1020300049462046009600F00DFB0028C1D147F02C
:10204000F1002168086133465A465146204600F0A7
:1020500035FB0028BCD00120BAE7000002000100D7
:10206000F8B50446C06A1E460D461746082807D034
:10207000012805D010F5803F02D0206B122804D132
:102080002068016841F480710160134600224FF01E
:1020900001112046009600F0DDFA40B1206800688A
:1020A000C00502D54FF4007020640320F8BD2069FC
:1020B000B0F5804F0ED00620216800EAD51040F020
:1020C000F000086133463A460B49204600F0F6FA24
:1020D00078B902E005F0FE0000E0E8B2216808618E
:1020E000054933463A46891F204600F0E7FA0028A2
:1020F000DCD00120F8BD00000800010010B5C16A65
:1021000090F83D20212A0BD1428D52B1416A0268DC
:1021100009781161416A491C4162418D491E41851E
:1021200010BD00222023082910D020290ED011F53F
:10213000803F0BD001684C6824F4E0644C601121AE
:10214000016380F83E2080F83D300EE001684C6865
:1021500024F4E0644C6001680C6844F400740C6082
:10216000026380F83D3080F83E20FEF7EDFE10BDA2
:1021700010B590F83D1090F83E30C26A048DB4B1AD
:10218000212903D0402B11D122290FD1418DE1B358
:1021900090F83E10402942D0416A026809781161E6
:1021A000416A491C4162418D491E418510BD21296A
:1021B000E8D120230021082A13D0202A11D012F5BB
:1021C000803F0ED00268546824F4E0645460112209
:1021D000026380F83E1080F83D3000BFFEF7B4FE89
:1021E00010BD0268546824F4E06454600268146806
:1021F00044F400741460016380F83D3090F83E2090
:1022000080F83E10402AE9D100E002E0FFF757F8DD
:1022100010BD0068416821F48061416010BDBDE8D7
:10222000104000F0F3B8000078B590F83E50C26A54
:10223000046B90F83D6000230168222E73D1066D77
:102240000EB9402D6FD0056D1DB90569B5F5404F2C
:102250001BD0458D95B3468D484D012E20D0448D21
:10226000022C4DD00C6844F480640C6001684C680A
:10227000240579D5AA4273D0012A71D0082A6FD0DB
:10228000102A6DD0202A6BD06EE04A698A690092CC
:102290000A6842F480720A60016D491C016578BDCC
:1022A000AA4214D10A6822F480620A6001684A686E
:1022B000120504D50A6822F4806217E0FFE74A6934
:1022C0008A6900920A6842F400720A6050E0082AA3
:1022D00010D0202A0ED0122C0AD0042A03D0022AB1
:1022E00001D0102AE6D10A6842F480620A603BE01D
:1022F000012ADFD00A6822F480620A600168DEE702
:10230000042A11D0022A0FD0102A0DD00C6844F4F0
:1023100000640C6001684C698C6900940C6824F4BA
:1023200080640C6008E025E00C6844F480640C6074
:1023300001684C698969009101684C68240517D5CA
:10234000AA4207D0012A05D0082A03D0102A01D0BA
:10235000202A0DD14A6842F480524A6008E0FFE723
:102360004A6842F480524A6001684A69896900916A
:10237000036578BD48698869009078BD0000FFFF5B
:1023800090F83E10402910D00169B1F5804F19D066
:10239000016DA9B3016D012910D1416C5FF0F1020B
:1023A00001F4407142EAD11106E0016D0029416C4F
:1023B00005D0C9B241F0010100680161704701F028
:1023C000FE01F9E790F83D102129416C09D0C9B20E
:1023D00041F0010102681161416B29B1896A49B973
:1023E00002E001F0FE01F5E7816B0029E6D0896A81
:1023F0000029E3D00068416841F400614160704702
:10240000FFE7416CF02201F44071CBE710B590F882
:102410003D10026D22B3026D012A2FD0026D022AF7
:102420001DD1222931D0428D0AB1212933D0428DCC
:10243000002A14D1212912D101684A6822F4E062ED
:102440004A6001680A6842F400720A600021016370
:10245000202280F83D2080F83E10FEF730FF10BDAE
:10246000C16C0129816C02D0C1F3072108E0026828
:10247000C9B21161016D891C016510BD816CC9B2C1
:1024800002681161016D491CF6E70068016841F4BA
:102490008071016010BD416A026809781161416A6A
:1024A000491C4162418D491E418510BDF8B590F827
:1024B0003D6004460068416821F4E06141602068A5
:1024C000002541690091016841F001010160206827
:1024D000016821F48061016020684168090520D508
:1024E000474F222E48D02A2E46D0616B0968496892
:1024F0006185618D19B1216C41F00401216441684D
:1025000021F400614160606BFEF73CF9012808D0BE
:10251000606B4763606BFEF7E9F810B1606B416B6D
:102520008847608D08B320684169C943490708D4CA
:102530000069616A0870606A401C6062608D401EBC
:10254000608520684169C943490608D40069616A09
:102550000870606A401C6062608D401E6085608DFE
:1025600018B1206C40F004002064206C00B32046B9
:10257000BDE8F840FFF75EBBA16B0968496861855B
:10258000618D19B1216C41F004012164416821F48D
:1025900000614160A06BFEF7F5F80128C1D0A06B87
:1025A0004763A06BFEF7A2F80028BAD0A06BB6E78D
:1025B0002A2E06D12563282084F83D002046FEF708
:1025C000E7FE94F83D10202028290DD0216B222908
:1025D00001D0222E07D1256384F83D0084F83E50B7
:1025E0002046FEF7D5FEF8BD0649E162256384F872
:1025F0003D0084F83E502046FEF7A4FCF8BD0000E4
:10260000791B00080000FFFF70B516460D46044612
:102610000DE02046FFF7BAFB08B1012070BD681C31
:1026200005D0FEF78DFA801BA84207D835B1206887
:102630004069C0434007ECD4002070BD002044F83E
:10264000300F20216173A073216941F020012161C5
:102650002073E2E72DE9F0471E4690460D460446FA
:10266000C1F30747DDF8209008E0701C06D0FEF7A4
:1026700067FAA0EB0900B0420FD876B12068012FAD
:1026800018D0806925EA00000004000C14D0002155
:102690004145EAD00020BDE8F087002044F8300F23
:1026A00020216173A073216941F020012161207311
:1026B0000120F0E74069E5E70121E9E72DE9F0476E
:1026C0009A4691460E46044600254FF02008C1F375
:1026D000074725E020684069C043400514D42068BE
:1026E000016841F40071016021686FF48060486105
:1026F000256384F83D8084F83E50206C40F004004F
:10270000206484F83C501FE0B9F1FF3F08D0FEF789
:1027100017FAA0EB0A0149450CD8B9F1000F09D00E
:102720002068012F13D0806926EA00000004000C05
:102730000BD0CFE744F8305F84F80D80A573206993
:1027400040F02000206125730120BDE8F08740693A
:10275000EAE72DE9F041002590460E460446202781
:1027600017E04069C043C0060CD454F8301B6FF02A
:102770001000486144F810596777A577206A2062F5
:10278000257717E0FEF7DCF9A0EB0800B04208D887
:102790003EB120684169C9434906E2D40020BDE842
:1027A000F08144F8305F6773A573206940F0200022
:1027B000206125730120F2E770B516460D460446E8
:1027C0000DE02046FFF7E2FA08B1012070BD681C59
:1027D00005D0FEF7B5F9801BA84207D835B12068AF
:1027E0004069C0430006ECD4002070BD002044F8CE
:1027F000300F20216173A073216941F02001216114
:102800002073E2E70D4808B5416941F001014161DB
:102810004069002200F00100009011461020FEF7F0
:102820001FFE1020FEF70EFE002211461120FEF7BB
:1028300017FEBDE808401120FEF704BE001002405C
:102840000D4808B5816941F020018161816901F07D
:1028500020010091816941F004018161816901F0E9
:1028600004010091816941F008018161806900F0F3
:102870000800009008BD0000001002400D4810B58F
:102880000B4901600C49416000214FF48042816096
:10289000C0E9031241618161C1610162FEF78EFAF4
:1028A000002803D0BDE81040FDF71FBF10BD000099
:1028B000005400401C000020A08601000C4810B508
:1028C0000A4901604FF4E1314160002181600C222E
:1028D000C160C0E904128161C161FFF783F800287B
:1028E00003D0BDE81040FDF700BF10BD0038014027
:1028F000F8000020FEE7704770477047FEF74ABDBA
:1029000010B590B028216846FDF735FC14210AA8BF
:10291000FDF731FC022000900120049010200024DB
:10292000059007946846FEF7B9FE0F20CDE90A042A
:102930000C940D9400210AA80E94FEF7C3FD10B06C
:1029400010BD704770B5044600680169E26821F463
:102950004051114301612169A0680843616908433E
:102960002168CA6841F20C639A430243CA60206836
:102970004169A26921F44071114341611E492068F7
:10298000884202D1FEF744FE01E0FEF731FE00EB83
:10299000C00101EB0012606864218000B2FBF0F31B
:1029A000B3FBF1F36FF018067343B2FBF0F5B2FB23
:1029B000F0F605EB8305322303EB0515B5FBF1F5C6
:1029C000B6FBF1F605F0F00505EB0615B2FBF0F6E7
:1029D000B2FBF0F0B0FBF1F06FF01802504306EBE1
:1029E000800003EB0010B0FBF1F0216800F00F0055
:1029F0002844886070BD0000003801402DE9F04196
:102A0000984617460E460446069D1DE0681C1BD0DE
:102A10002DB1FEF795F8A0EB0800A84214D9206864
:102A2000C16821F4D071C1602068416921F00101C1
:102A30004161202084F8390084F83A00002084F8AD
:102A400038000320BDE8F0812068006836EA000005
:102A500004D00020B842D9D00020F3E70120F9E7E4
:102A6000FEE700000FB4054B10B503A9044A029815
:102A700000F0EAF810BC5DF814FB000029360008ED
:102A8000180000200907090E002804DB00F1E020EF
:102A900080F80014704700F00F0000F1E02080F88B
:102AA000141D704702E008C8121F08C1002AFAD19D
:102AB00070477047002001E001C1121F002AFBD1BE
:102AC000704700002DE9FF5F82B00021DDE904308E
:102AD000020DDDF840B0034318D044F61050A2F2C6
:102AE000FF3242431514119801281FD0A5EB0B00AB
:102AF000401C5FEA000A4FF000064E4FDFF83891A5
:102B0000B046504615D5CAF1000413E011980124CF
:102B10004AA3012801D16FEA0B010298119AC0E97A
:102B20000031C0E9024206B0BDE8F09FCBF10000E1
:102B3000DFE704460021404A491842EB0450CDE942
:102B4000001012E0E00707D032463B4640464946B7
:102B5000FDF71CFB8046894632463B461046194627
:102B6000FDF714FB06460F466410002CEAD1DDE9A0
:102B70000401DDE90023BAF1000F06DAFDF706FBD8
:102B800042464B46FDF702FB05E0FDF771FB42466E
:102B90004B46FDF76DFB04460E460022284BFDF721
:102BA0004BFD03D84FF0FF30014607E00022254BD4
:102BB00020463146FDF780FCFDF725FD102409E095
:102BC000002C0ADB0A220023FDF7E8FB039B3032CE
:102BD0001A55641E50EA0102F2D1641C039AC4F132
:102BE00011031444119A012A03D0012208430DD184
:102BF0000AE0084304D000204FF0110B119072E757
:102C0000A3EB0B056D1E0DE05B4504DD4FF00002EC
:102C100005F1010504E003DA4FF00002A5F101051A
:102C2000002AECD002981199C0E90231C0E90045B0
:102C300079E70000000014400000F03F3000000081
:102C40000000F0430000E03F2DE9FF4F95B09B46A8
:102C50008946064600250FE2252877D1002427461D
:102C6000F84A0121059400E0044316F8013F203B97
:102C700001FA03F01042F7D130782A2811D06FF012
:102C80002F033078A0F13002092A16D8059A44F0B3
:102C9000020402EB820203EB42021044761C059010
:102CA000EFE759F8042B0592002A03DA504244F466
:102CB0000054059044F00204761C30782E2816D17A
:102CC00016F8010F44F004042A280DD06FF02F02EB
:102CD0003078A0F13003092B09D807EB870302EB0A
:102CE0004303C718761CF3E759F8047B761C307849
:102CF0006C280FD006DC4C2817D068280DD06A2825
:102D000014D104E0742810D07A280FD10DE044F4D7
:102D100000140AE044F4801401E044F44014727892
:102D2000824202D104F58014761C761C3078662825
:102D30000BD013DC582877D009DC002875D0452843
:102D4000F6D04628F4D047281AD19DE118E0632830
:102D500035D0642879D0652812D195E1702873D0D8
:102D600008DC6728F1D069286FD06E280DD06F2855
:102D700006D1B5E073282CD0752875D0782874D08A
:102D80005A46179990476D1C75E1C4F3025002280A
:102D900009D003280DD0D9F8001004280DD00D60FB
:102DA00009F1040967E1D9F80010EA17C1E90052F6
:102DB000F6E7D9F800100D80F2E70D70F0E719F88A
:102DC000041B8DF8001000208DF80100EA46012058
:102DD00003E059F804AB4FF0FF3061074FF00001FA
:102DE00002D40DE008F101018846B9420FDA8045AE
:102DF000F8DB1AF808100029F4D108E008F1010105
:102E000088468142FADB1AF808100029F6D10598A5
:102E10005B46A0EB080721463846179A00F094FA63
:102E2000284400EB080507E04DE029E10DE01AF821
:102E3000010B5A4617999047B8F10108F7D25B4643
:102E400021463846179A13E142E00A220092C4F361
:102E500002524FF0000A022A08D059F804CB032A84
:102E60004FEAEC710AD00DE029E02AE009F10701F0
:102E700021F00702F2E802C1914609E00FFA8CFC4A
:102E80004FEAEC71042A03D14FFA8CFC4FEAEC7143
:102E9000002907DA0A460021DCF1000C61EB02018F
:102EA0002D2202E0220504D52B228DF804200122D8
:102EB00003E0E20701D02022F7E7904659E00A211B
:102EC00002E010220DE010214FF0000A00910BE00B
:102ED00010224FF0000A44F004040827009203E097
:102EE00008224FF0000A0092C4F30252022A05D0D1
:102EF00059F804CB0021032A08D009E009F10701A1
:102F000021F00702F2E802C1914605E01FFA8CFCAD
:102F1000042A01D10CF0FF0C4FF00008220728D53D
:102F2000702806D0009B83F0100353EA0A0305D0F3
:102F30000EE040228DF80420012208E05CEA010244
:102F400006D030228DF804208DF80500022290462C
:102F5000009B83F0080353EA0A030AD15CEA0102EA
:102F600001D1620705D530228DF804204FF0010809
:102F70007F1E582804D034A003900EA802900DE0C4
:102F800036A0F9E753466046009AFDF707FA8446F3
:102F90000398825C0298401E029002705CEA010075
:102FA000F0D1029806A9081A00F1200A600702D59C
:102FB00024F4803400E00127574502DDA7EB0A0026
:102FC00000E0002000EB0A01009005984144401AFF
:102FD0000590E00306D45B462146179A059800F059
:102FE000B3F90544002706E001A85A46C05D1799C9
:102FF00090476D1C7F1C4745F6DBE0030CD55B4614
:103000002146179A059800F09FF9054404E0302006
:103010005A46179990476D1C0099481E0090002948
:10302000F5DC08E0029802995A460078491C0291A2
:10303000179990476D1CBAF10001AAF1010AF1DC61
:1030400065E100000928010030313233343536376C
:1030500038396162636465660000000030313233E4
:103060003435363738394142434445460000000084
:1030700000F058F90544761C307800287FF4ECAD58
:1030800019B02846BDE8F08F620700D4062709F181
:10309000070222F0070CFCE80223E14603F0004897
:1030A0005FEA080C02D00FF2702C0DE05FEA045CBE
:1030B00002D50FF2682C07E05FEAC47C02D00FF261
:1030C000602C01E0AFF2700C4FF0FF3823F00043AA
:1030D000CDF850C065280CD006DC452809D046281C
:1030E0001DD047283DD13DE0662818D067287ED105
:1030F00038E00021112F01DB112000E0781CCDE920
:10310000000106A90EA8FFF7DDFCDDE90F010E9A0C
:1031100003910021009207F1010A04914DE04FF064
:1031200000400097CDE9011006A90EA8FFF7CAFCE0
:10313000DDE90F0203920E9B11990022DDF80CA02D
:103140000093049211B9791C00EB010AB7EB0A0055
:1031500004D4C0F1FF3007F1010A0490AAEB070084
:10316000019044E0012F00DA01270021112F01DD39
:10317000112000E03846CDE9000106A90EA8FFF7AE
:10318000A1FCDDE90F010E9A039100210491009248
:10319000BA4621070CD40399514500DA8A46BAF1A0
:1031A000010F05DD009AAAF10101515C302908D018
:1031B000B84202DA10F1040F06DA0121CDE901105C
:1031C00015E0AAF10101E9E7002805DC04990144B2
:1031D0000491AAEB000102E0411C514500DD8A4642
:1031E0000499401A401C01904FF0004002902007C3
:1031F00004D40198504501DBCDF8048000208DF8FF
:103200004F0002980DF14F07B0F1004F25D02B2051
:103210000E9002984FF0020800280CDA404202900B
:103220002D200E9007E00A210298FDF7A1F8303119
:10323000029007F8011DB8F10001A8F10108F2DCC5
:1032400002980028EFD1791E0E980870307800F0AF
:10325000200040F0450007F8020D12A8C01B00F145
:1032600007081498007800B1012000EB0A010198CA
:1032700001EBE07105984144401A401E0590E003BF
:1032800006D45B462146179A059800F05DF8054480
:103290001498007818B15A46179990476D1CE003AE
:1032A00024D55B462146179A059800F04DF8054451
:1032B0001CE00498002807DBDDE90301884203DDF8
:1032C0000098405C179901E0179930205A469047C2
:1032D000049805F10105401C04900198401E0190DE
:1032E00004D12E205A46179990476D1CBAF100015F
:1032F000AAF1010ADDDC05E017F8010B5A4617991F
:1033000090476D1CB8F10001A8F10108F4DC5B46A0
:103310002146179A0598ABE62D0000002B0000000F
:10332000200000002DE9F041044600251E46174606
:10333000880404D405E039462020B0476D1C641E83
:10334000F9D52846BDE8F0812DE9F0410446002575
:103350001E469046C80301D5302700E02027880488
:1033600004D505E041463846B0476D1C641EF9D5CA
:103370002846BDE8F08100000FB41CB519AC94E8F4
:1033800007008DF804008DF805108DF806204FF425
:103390007A7407E004A8FDF70FFD042802D007A007
:1033A000FFF760FB032301AA902104A80094FDF716
:1033B000EFFE0028EED11CBC5DF814FB6164733194
:1033C00031313520436F6E666967205265676973D6
:1033D000746572206572726F722121210D0A0000DE
:1033E0000FB42A22F0B5A9B02EA9DDE9446414A8CF
:1033F000439DFCF7A7FEBDF8E200ADF87A003998CE
:103400001F903A9820903BA909220F4621A8FCF76B
:1034100099FE9DF8F5008DF88D009DF8F6008DF869
:103420008E003E9824903F98259040982690419891
:10343000279042982890CDE91264442218A9684642
:103440001195FCF77FFE0DF1500C9CE80F00FFF783
:1034500093FF0A20FDF772FA2A222EA911A8FCF781
:1034600071FEBDF8E200ADF86E0039981C903A98F4
:103470001D90092239461EA8FCF764FE9DF8F50050
:103480008DF881009DF8F6008DF882003E9821901D
:103490003F982290409823904198249042982590FC
:1034A000442215A96846FCF74DFE11AF97E80F00BE
:1034B00000F064F8A0F5FE410746FF3914D0002063
:1034C000B7F5004F12D00021084303D0002721A0F8
:1034D000FFF7C8FAC6F34200214E06281BD2DFE8E8
:1034E00000F0070D20262C320120ECE70121EBE74C
:1034F0003846FCF72CFF00221A4B04E03846FCF754
:1035000026FF0022184BFCF741FE00223346FCF751
:10351000AFFE04460D4629B020462946F0BC5DF8B2
:1035200014FB3846FCF713FF0022104BEBE738463C
:10353000FCF70DFF00220E4BE5E73846FCF707FFCE
:1035400000220C4BDFE73846FCF701FF00220A4B54
:10355000D9E700006F766572205047410D0A0000E0
:1035600080842E410070674000405F4000404F4023
:1035700000403F4000402F4000401F400FB400205B
:103580001CB54FF47A74019007E004A8FDF714FC11
:10359000042802D013A0FFF765FA0123002290212E
:1035A00004A80094FDF7F4FD0028EED107E004A87C
:1035B000FDF702FC042802D013A0FFF753FA022300
:1035C00001AA912104A80094FDF7C0FC0028EED1C7
:1035D0009DF805009DF804101CBC00EB012000B212
:1035E0005DF814FB6164733131313520636F6E76A1
:1035F00065727420526567697374657220657272B2
:103600006F722121210D0A0061647331313135203F
:10361000726561642064617461206572726F7221E9
:1036200021210D0A0000000013B54FF6FF7301229F
:1036300069460248FEF740FA00981CBDF8000020D9
:10364000AAB0FDF7AFFEFFF75BF9FFF7F9F8FFF758
:10365000D9F8FFF713F9FFF731F9254C8326254DEB
:1036600004F1340B0DF1840AC3274FF001080DF16A
:1036700060092A221E4914A8FCF764FD608DADF88C
:103680007A00E06A1F90206B20900922594650462C
:10369000FCF758FD94F83D008DF88D0094F83E003D
:1036A0008DF88E00206C2490606C2590A06C269084
:1036B000E06C2790206D2890CDE91276442249468F
:1036C0006846CDF84480FCF73DFD0DF1500C9CE8B8
:1036D0000F00FFF785FEC5E9000102460B4606A074
:1036E000FFF7C0F94FF47A70FDF728F9C1E7000041
:1036F0001C0000200000002076616C2069732025EA
:10370000660D0A0000000000000000000102030432
:103710000607080900000000010203043C37000806
:10372000000000201C000000A42A000858370008F0
:103730001C0000201C050000B42A00080000000046
:103740000000000001000000100000000000000068
:083750000024F4000000000059
:04000005080000ED02
:00000001FF
