:020000040800F2
:10000000F0040020450100085F1A0008831500086D
:100010005D1A000853020008D91C00080000000007
:10002000000000000000000000000000631A00084B
:100030005502000800000000611A0008651A000857
:100040005F0100085F0100085F0100085F01000810
:100050005F0100085F0100085F0100085F01000800
:100060005F0100085F0100085F0100085F010008F0
:100070005F0100085F0100085F0100085F010008E0
:100080005F0100085F0100085F0100085F010008D0
:100090005F0100085F0100085F0100085F010008C0
:1000A0005F0100085F0100085F0100085F010008B0
:1000B000B91A00085F0100085F0100085F0100082D
:1000C0005F0100085F0100085F0100085F01000890
:1000D0005F0100085F0100085F0100085F01000880
:1000E0005F0100085F0100085F0100085F01000870
:1000F0005F0100085F0100085F0100085F01000860
:100100005F0100085F0100085F0100085F0100084F
:100110005F0100085F0100085F0100085F0100083F
:100120005F0100085F0100085F0100085F0100082F
:10013000DFF80CD000F06CF800480047B921000847
:10014000F00400200648804706480047FEE7FEE727
:10015000FEE7FEE7FEE7FEE7FEE7FEE7FEE7FEE777
:10016000B71A000831010008202A04DB203A21FADE
:1001700002F00021704721FA02F3D040C2F12002C0
:100180009140084319467047D2B201E000F8012BB4
:10019000491EFBD270470022F6E710B513460A4607
:1001A00004461946FFF7F0FF204610BD2DE9F05F29
:1001B0000546002092469B468846064681464024D6
:1001C0001BE02846414647462246FFF7CDFF5346EF
:1001D0005A46C01A914110D311461846224600F0E3
:1001E00029F82D1A67EB01084F462246012000210D
:1001F00000F020F817EB00094E41201EA4F1010485
:10020000DFDC484631462A464346BDE8F09F000001
:10021000064C074D06E0E06840F0010394E8070053
:1002200098471034AC42F6D3FFF786FF0823000846
:1002300028230008202A04DB203A00FA02F10020DB
:1002400070479140C2F1200320FA03F31943904014
:100250007047FEE77047704770B5044600F00AF932
:100260000546601C02D004480078044400F002F9FE
:10027000401BA042FAD370BD000000202DE9F84FCA
:10028000DFF8C891002409F1040A0AF1040B23469F
:100290000F270BF1040ED1E00125A54006EA050267
:1002A000AA4276D1DFF8A8C14E68A6EB0C086645D5
:1002B0002BD00DDC032E34D005DC36B3012E19D043
:1002C000022E2FD11BE0112E16D0122E2AD119E0AA
:1002D000B8F5881F19D006DCB8F5803F15D0B8F501
:1002E000801F1FD111E0B8F5001F0ED0B8F5041F14
:1002F00018D10AE0CB6815E0CB681B1D12E0CB6873
:1003000008330FE0CB680C330CE08B682BB1012B6A
:100310004FF0080303D0456104E0042302E00561C7
:1003200000E00023FF2A01D8064601E000F10406A0
:100330004FEA840501D9A5F12005D6F8008007FA17
:1003400005FC28EA0C0803FA05F548EA0508C6F892
:1003500000804D68ED0070D53E4DAE6946F0010657
:10036000AE61AD6924F0030605F0010500953A4D34
:1003700006EB050CDCF80850A607360F07FA06F85E
:1003800025EA0805DFF8D480404503D14FF0000886
:1003900025E052E0DFF8C880404502D14FF0010867
:1003A0001DE0DFF8C080404502D14FF0020816E0A2
:1003B000DFF8B480404502D14FF003080FE0DFF8CA
:1003C000AC80404502D14FF0040808E0DFF8A0807F
:1003D000404502D14FF0050801E04FF0060808FA49
:1003E00006F848EA0508CCF808804D68D9F800609E
:1003F000ED034D4601D5164300E096432E604D684F
:10040000DAF80060AD03554601D5164300E0964387
:100410002E604D68DBF80060ED025D4601D51643A5
:1004200000E096432E604D68DEF80060AD02754630
:1004300001D5164300E096432E60641C0A681646F8
:10044000E2407FF429AFBDE8F88F000000040140CE
:10045000000011100010024000000140000801409F
:10046000000C014000100140001401400018014040
:10047000001C014001488068704700000000002017
:1004800070B5040025D094F83D00002520B984F80B
:100490003C50204600F078FA242084F83D00206883
:1004A000016821F0010101602068016841F4004108
:1004B00001602068016821F40041016000F0C2FB86
:1004C0004D4A6168914201D84C4900E04C4988424C
:1004D00001D2012070BD4B492368B0FBF1F15E6889
:1004E00026F03F060E435E606368934206D94FF4E0
:1004F000967359434FF47A73B1FBF3F12368491CA7
:100500001E6A26F03F06314319626168914210D895
:100510004900401EB0FBF1F2521CC2F30B02042A48
:1005200001D2042022E0B0FBF1F0401CC0F30B002C
:100530001CE0A268F2B301EBC10303EB0116431EFA
:10054000B3FBF6F35B1C43F480431B0549D092B325
:1005500001EBC10202EB0111401EB0FBF1F0401CA7
:10056000C0F30B0040F4804040F400402168CA69A9
:100570004CF6FF739A431043C861D4E90710014356
:100580002068026822F0C00211430160D4E903012F
:1005900001432068826848F2FF339A431143816027
:1005A000D4E9050108432168CA6822F0FF0210431C
:1005B000C86001E00EE016E02068016841F001012A
:1005C00001602564202084F83D00256384F83E50B6
:1005D000002070BD01EB4106431EB3FBF6F35B1C2C
:1005E000B3E70120C2E701EB4101401EB0FBF1F08F
:1005F000401CC0F30B00B7E7A086010080841E00FA
:1006000000093D0040420F002DE9FF4F83B0002557
:10061000DDE910799A4693460446DDF84880009556
:10062000FFF728FF064694F83D0020287CD11923C7
:10063000012285492046009601F0B4F80028F5D142
:1006400094F83C0001286FD0012084F83C00206819
:100650000168C90703D1016841F001010160206808
:10066000016821F400610160222084F83D004020EF
:1006700084F83E0025646762A4F82A90608D208586
:100680007248E062CDE9008653465A4620460499F6
:1006900000F090FF00287DD1208DDFF8B491202755
:1006A00068B1012814D00228206801681ED041F4E6
:1006B000806101602068416980690090B6E020682F
:1006C000416981690091016841F400710160ADE008
:1006D0002068016821F48061016072B62068416978
:1006E00081690091016841F400710AE041F4006100
:1006F000016072B62068416981690091016821F446
:100700008061016062B691E0032868D801280CD0AE
:10071000022843464FF000024946204600960FD07B
:1007200001F040F8B0BB10E08BE032464146204675
:1007300001F0B7F870BB20680069616A08706CE06E
:1007400001F030F830BB72B634E02068016821F463
:100750008061016072B620680069616A0870606A31
:10076000401C6062208D401E2085608D401E60858B
:10077000384846F2A8110068B0FBF1F0C0EBC000A9
:1007800000EB80000090401E009008D02068406977
:10079000C04300E029E040070CD50098F3E744F897
:1007A000305F6773A573206940F02000206162B656
:1007B00025731AE02068016841F400710160206827
:1007C0000069616A0870606A401C6062218D491E80
:1007D0002185618D491E618562B621681BE0324624
:1007E0004146204601F05DF818B1012007B0BDE890
:1007F000F08F20680069616A0870606A401C60625E
:10080000218D491E2185618D491E618521684A69B6
:10081000D24352070AD409690170606A401C6062C1
:10082000208D401E2085608D401E6085208D002813
:100830007FF46AAF84F83D7084F83E5084F83C50F1
:10084000D4E70220D2E70000020010000000FFFF02
:10085000040001000C0000202DE9FF4F83B09A46F0
:10086000DDE9119793460446DDF84080FFF702FE6C
:10087000054694F83D0020287FD1192301224049E4
:100880002046009500F08EFF002876D194F83C00B9
:10089000012872D0012084F83C0020680168C90753
:1008A00003D1016841F0010101602068016821F471
:1008B00000610160212084F83D00402084F83E0062
:1008C00000262664C4F82480A4F82A90608D208530
:1008D0002C48E062CDE9007553465A4620460499FB
:1008E00000F0E6FE70B930E02A463946204601F0B5
:1008F0000BF858B1206C042804D12068016841F439
:1009000000710160012007B0BDE8F08F606A2168C6
:1009100000780861606A401C6062218D491E89B2BE
:100920002185628D521E628522685369DB435B0715
:100930000BD469B100781061606A401C6062208D40
:10094000401E2085608D401E6085208D0028CBD103
:100950002A463946204600F0FFFE0028CAD154F846
:100960003D0B016841F400710160202004F81E096C
:10097000E67766770020C6E7FFE70220C3E70000BE
:10098000020010000000FFFF10B586B000210091AA
:100990000191029103910068104988421BD1104CCB
:1009A000A06940F00800A061A069694600F0080055
:1009B00004904FF4406000901220019003200390B7
:1009C0000848FFF75BFCE06940F48000E061E06903
:1009D00000F48000049006B010BD000000580040F4
:1009E00000100240000C0140024881680278114466
:1009F0008160704700000020074810B5016841F091
:100A000010010160032000F075F8002000F006F8E6
:100A100000F024F8002010BD0020024070B50D4DFC
:100A200004464FF47A712878B1FBF0F00A4909685E
:100A3000B1FBF0F000F0ECFA48B9102C07D200221C
:100A40002146501E00F036F800206C6070BD012079
:100A500070BD0000000000200C0000200C4808B50C
:100A6000816941F001018161816901F00101009119
:100A7000C16941F08051C161C06900F080500090AF
:100A80000448416821F0E06141F00071416008BD17
:100A90000010024000000140002809DB00F01F02A6
:100AA000012191404009800000F1E020C0F80011D0
:100AB00070470000F0B40E4B1B680C46C3F30223D2
:100AC000C3F10705042D00D90425191D072901D2FA
:100AD000002300E0DB1E012606FA05F1491E214035
:100AE00099409E40761E16403143F0BC01F006B995
:100AF0000CED00E0064900F0070208684FF6FF031E
:100B0000184040EA0220034A104308607047000082
:100B10000CED00E00000FA052DE9F0470F46050056
:100B200061D0434E306800F00700B84209D2306807
:100B300020F0070038433060306800F00700B8420A
:100B400051D128683B4C810712D5400703D5606816
:100B500040F4E06060602878000703D5606840F4E6
:100B6000605060606068A96820F0F0000843606031
:100B70002878C00728D06868012810D0216802288A
:100B800010D0890700292EDA616821F003010143A2
:100B90006160FFF76FFC804641F288390DE0216803
:100BA0008903EFE78901EDE7FFF764FCA0EB08019B
:100BB000494502D90320BDE8F0876068696800F004
:100BC0000C00B0EB810FEFD1306800F00700B842A5
:100BD0000BD9306820F0070038433060306800F0EF
:100BE0000700B84201D00120E5E72878400705D585
:100BF0006068E96820F4E0600843606028780007D6
:100C000006D56068296920F4605040EAC100606040
:100C100000F038F86168084AC1F30311515CC8401C
:100C20000649086006480068FFF7F8FE0020C2E7A2
:100C30000020024000100240F02200080C000020BA
:100C4000040000200448054900684968044AC1F3CB
:100C50000221515CC84070470C0000200010024087
:100C6000002300080448054900684968044AC1F3A4
:100C7000C221515CC84070470C00002000100240A7
:100C80000023000812A185B00FC98DE80F0014A041
:100C9000144A006804905168134801F00C03042BB7
:100CA00010D0082B0ED1C1F38343C9031DF80300F4
:100CB0000AD5516804AAC1F34041515C0A4A504325
:100CC000B0FBF1F005B0704708494843FAE700006F
:100CD00002030405060708090A0B0C0D0E0F10107D
:100CE000010200000010024000127A0000093D00DD
:100CF0002DE9F84F040070D02078C04DC00749D0CE
:100D00006868C0F38100012807D06868C0F38100DB
:100D1000022809D16868C00306D52868800339D540
:100D200060680028E7D035E06068B0F5803F0BD000
:100D300010B1B0F5A02F11D0286820F480302860C1
:100D4000286820F4802002E0286840F48030286081
:100D5000606890B1FFF78EFB06460AE0286840F411
:100D600080202860F0E700BFFFF784FB801B642829
:100D700073D828688003F7D50CE0FFF77BFB0646A5
:100D800005E000BFFFF776FB801B6428F0D82868D9
:100D90008003F7D420789A4E80074FF001094FF076
:100DA000000839D5686810F00C0F07D06868C0F3E8
:100DB0008100022809D16868C00306D4286880072A
:100DC00014D52069012808D110E02069B0B1C6F817
:100DD0000090FFF74FFB074605E00AE1FFF74AFBEB
:100DE000C01B0228C4D828688007F7D52868616925
:100DF00020F0F80040EAC10028600DE0C6F800804D
:100E0000FFF738FB074604E0FFF734FBC01B02285E
:100E100023D828688007F7D4207800072CD5794894
:100E2000A169D9B1C0F80090FFF724FB074604E0A0
:100E3000FFF720FBC01B02280FD8686A8007F7D590
:100E400071484FF4FA510068B0FBF1F0009000BF18
:100E50000098411E0091FAD20EE080E0C0F80080B8
:100E6000FFF708FB074604E0FFF704FBC01B02285E
:100E700075D8686A8007F7D42078400760D5E8699C
:100E80000027C00008D4E86940F08050E861E869B4
:100E9000012700F0805000905C480168C90513D418
:100EA0000168834641F480710160FFF7E3FA8246EE
:100EB00006E000BFFFF7DEFAA0EB0A0064284ED878
:100EC000DBF80000C005F5D5E06801280AD008B1BC
:100ED000052813D0286A20F001002862286A20F033
:100EE000040002E0286A40F001002862E06841F254
:100EF000883B98B1FFF7BEFA82460BE0286A40F0C3
:100F000004002862EEE700BFFFF7B4FAA0EB0A0185
:100F100059455AD8286A8007F6D50CE0FFF7AAFA97
:100F2000824605E0FFF7A6FAA0EB0A0159454CD826
:100F3000286A8007F6D41FB1E86920F08050E86184
:100F4000E06988B36968C1F38101022944D00228AD
:100F5000C6F8608004D0FFF78DFA044638E034E02C
:100F6000FFF788FA074604E0FFF784FAC01B02285F
:100F70002BD828688001F7D4206AB0F5803F05D1CE
:100F80006868A16820F4003008436860D4E908016B
:100F90000843696821F4741108436860C6F86090DA
:100FA000FFF768FA044606E025E000BFFFF762FAA3
:100FB000001B022809D828688001F7D51BE000BF74
:100FC000FFF758FA001B022802D90320BDE8F88F6A
:100FD00028688001F4D40EE00128F7D06868226AFE
:100FE00000F48031914204D1616A00F470108842AB
:100FF00001D00120EAE70020E8E7000000100240ED
:1010000000004242800442420C0000200070004078
:1010100010B5401EB0F1807F01D3012010BD4FF00C
:10102000E02460610F21601700F068FE0020A061DD
:1010300007202061002010BD7047704770B590F800
:101040003C20012A2CD0012480F83C40022280F868
:101050003D2003685A689D6822F070060A68324392
:101060005A60104B02689A420ED00F4B9A420BD036
:10107000B2F1804F08D00D4B9A4205D00C4B9A42EA
:1010800002D00C4B9A4204D1496825F080031943E1
:10109000916080F83D40002180F83C10084670BD0A
:1010A000022070BD002C01400034014000040040CB
:1010B00000080040000C004010B5040003D094F874
:1010C0003D0010B107E0012010BD002084F83C0075
:1010D000204600F01FF8022084F83D00211D206802
:1010E00000F0F0FC012084F8460084F83E0084F80B
:1010F0003F0084F8400084F8410084F8420084F8FE
:10110000430084F8440084F8450084F83D00002042
:1011100010BD000008B50068B0F1804F12D10A4838
:10112000C16941F00101C161C069002200F0010004
:10113000009002211C20FFF7BDFCBDE808401C20E8
:10114000FFF7AABC08BD00000010024090F83D1057
:10115000012901D001207047022180F83D1001686B
:10116000CA6842F00102CA6000680E4988420ED087
:101170000D4988420BD0B0F1804F08D00B4988420E
:1011800005D00B49884202D00A49884204D18168BF
:1011900001F00701062903D0016841F00101016057
:1011A00000207047002C0140003401400004004042
:1011B00000080040000C004070B5044690F83C0068
:1011C000012817D0012584F83C50022084F83D0006
:1011D0002068826822F0770222F47F4282600868E9
:1011E000502830D00DDC20284DD005DC98B31028D5
:1011F0003BD148E0022070BD302844D0402834D193
:1012000039E0602828D0702806D0B0F5805F2CD057
:10121000B0F5005F29D10AE0CB68D1E9012120684F
:1012200000F096FC2068816841F0770109E0CB6806
:10123000D1E90121206800F08BFC2068816841F42D
:101240008041816011E0CA684968206800F092FC22
:101250005021206807E016E0CA684968206800F05D
:101260009AFC6021206800F07DFC84F83D5000204D
:1012700084F83C0070BDCA684968206800F07AFCB8
:1012800040212068EFE7226801461046EBE77047EF
:1012900070B50446006801694FF00005C94389072D
:1012A00015D4C168C943890711D4E91E0161012021
:1012B0002077206880698007204602D0FFF7E7FF8B
:1012C00004E000F098F8204600F096F825772068B2
:1012D0000169C943490717D4C168C943490713D4F1
:1012E0006FF004010161022020772068806910F40A
:1012F000407F204602D0FFF7CAFF04E000F07BF8F1
:10130000204600F079F8257720680169C94309076C
:1013100016D4C168C943090712D46FF008010161EE
:10132000042020772068C0698007204602D0FFF79C
:10133000AEFF04E000F05FF8204600F05DF825778E
:1013400020680169C943C90617D4C168C943C906E1
:1013500013D46FF010010161082020772068C06964
:1013600010F4407F204602D0FFF791FF04E000F028
:1013700042F8204600F040F8257720680169C9430B
:10138000C90708D1C168C943C90704D1891E0161D1
:10139000204600F032F820680169C943090609D4E3
:1013A000C168C943090605D46FF080010161204678
:1013B000FFF742FE20680169C943490609D4C168A4
:1013C000C943490605D46FF040010161204600F091
:1013D00015F820680169C94389060BD4C168C9435F
:1013E000890607D46FF0200101612046BDE87040F6
:1013F000FFF723BE70BD704770477047704770B5E8
:10140000040004D094F83900002510B106E0012052
:1014100070BD84F83850204600F022F8242084F86B
:1014200039002068C16821F40051C160204600F0F5
:10143000C5FB2068016921F4904101612068416980
:1014400021F02A0141612068C16841F40051C16066
:10145000E563202084F8390084F83A00002070BD4C
:1014600030B585B000240094019402940394006880
:101470001449884224D11448816941F48041816132
:10148000816901F480410491816941F00401816125
:1014900080690E4D00F0040004904FF4007000903D
:1014A000022001900320039069462846FEF7E6FEDD
:1014B0002815CDE90004694628460294FEF7DEFEB1
:1014C00005B030BD00380140001002400008014066
:1014D0002DE9F843044690F839001F4616460D469C
:1014E00020284CD1C5B1BEB194F83800012846D0AF
:1014F000012084F838004FF00008C4F83C80212017
:1015000084F83900FEF7B6FFA6848146E684A06819
:10151000B0F5805F03D004E00120BDE8F8832069C6
:1015200028B12E465FF0000584F838800EE00026D2
:10153000FAE78021204600F09DFBA0B9AEB116F875
:10154000010B21684860E08C401EE084E08C4B4633
:101550004FF0000200970028EBD14FF040012046E9
:1015600000F088FB30B10320D7E735F8020BC0F359
:101570000800E6E7202084F839000020CDE70220AB
:10158000CBE7FEE701684A69D24352050FD46FF4F6
:1015900080624A61002140F8301F2022427381732B
:1015A000026942F0040202610173012070470020C9
:1015B000704700002DE9F84F0446006889460B9DEE
:1015C00001689846174641F480610160206801680F
:1015D00041F48071016000954FF0011B00225946D3
:1015E00020460A9B00F0DEF84FF4007A40B12068F4
:1015F0000068C00501D5C4F840A00320BDE8F88FFD
:10160000216809F0FE0008612B46284920460A9A05
:1016100000F0FCF8F0BB20684169806900902A4620
:1016200020460A9900F070F940B1206C04283AD1A4
:101630002068016841F40071016034E0FEB2B8F145
:10164000010F09D02168380A08612A4620460A9904
:1016500000F05AF90028E8D1206806612A462046A1
:101660000A9900F051F90028DFD12068016841F49F
:101670008071016000950022594620460A9B00F0C7
:1016800091F80028B3D1216809F0FF0040F0010073
:10169000086100E007E02B46044920460A9A00F062
:1016A000B5F80028AAD00120A8E700000200010038
:1016B0002DE9F843044600680D46DDE90897016806
:1016C0009846164641F4807101604B4600224FF067
:1016D00001112046009700F065F848B120680068C5
:1016E000C00502D54FF4007020640320BDE8F883E4
:1016F000216805F0FE0008613B464A461549204630
:1017000000F084F888B920684169806900903A4601
:101710004946204600F0F8F848B1206C042804D16E
:101720002068016841F4007101600120DEE7F5B234
:10173000B8F1010F09D02168300A08613A464946DC
:10174000204600F0E1F80028E7D12068056100207C
:10175000CCE700000200010070B516460D460446B5
:101760000DE02046FFF70EFF08B1012070BD681C98
:1017700005D0FEF77FFE801BA84207D835B1206850
:101780004069C0434007ECD4002070BD002044F8FD
:10179000300F20216173A073216941F02001216184
:1017A0002073E2E72DE9F0471E4690460D460446B9
:1017B000C1F30747DDF8209008E0701C06D0FEF763
:1017C00059FEA0EB0900B0420FD876B12068012F76
:1017D00018D0806925EA00000004000C14D0002114
:1017E0004145EAD00020BDE8F087002044F8300FE2
:1017F00020216173A073216941F0200121612073D0
:101800000120F0E74069E5E70121E9E72DE9F0472C
:101810009A4691460E46044600254FF02008C1F333
:10182000074725E020684069C043400514D420687C
:10183000016841F40071016021686FF480604861C3
:10184000256384F83D8084F83E50206C40F004000D
:10185000206484F83C501FE0B9F1FF3F08D0FEF748
:1018600009FEA0EB0A0149450CD8B9F1000F09D0D7
:101870002068012F13D0806926EA00000004000CC4
:101880000BD0CFE744F8305F84F80D80A573206952
:1018900040F02000206125730120BDE8F0874069F9
:1018A000EAE72DE9F041002590460E460446202740
:1018B00017E04069C043C0060CD454F8301B6FF0E9
:1018C0001000486144F810596777A577206A2062B4
:1018D000257717E0FEF7CEFDA0EB0800B04208D850
:1018E0003EB120684169C9434906E2D40020BDE801
:1018F000F08144F8305F6773A573206940F02000E1
:10190000206125730120F2E770B516460D460446A6
:101910000DE02046FFF736FE08B1012070BD681CBF
:1019200005D0FEF7A7FD801BA84207D835B1206877
:101930004069C0430006ECD4002070BD002044F88C
:10194000300F20216173A073216941F020012161D2
:101950002073E2E7094808B5816941F00801816117
:10196000816901F008010091816941F00401816100
:10197000806900F00400009008BD000000100240E3
:101980000D4810B50B4901600C49416000214FF42E
:1019900080428160C0E9031241618161C1610162DD
:1019A000FEF76EFD002803D0BDE81040FEF753BCE3
:1019B00010BD00000058004014000020A086010067
:1019C00010B586B000241648009401940294039444
:1019D00004944FF08041059401604721C0E901144F
:1019E00040F2CF71C0E903148461FFF765FB08B1D1
:1019F000FEF731FC4FF48050009069460848FFF72D
:101A0000DBFB08B1FEF727FC049404A90448059405
:101A1000FFF714FB002801D0FEF71DFC06B010BD37
:101A2000680000200C4810B50A4901604FF4E1310C
:101A30004160002181600C22C160C0E90412816113
:101A4000C161FFF7DCFC002803D0BDE81040FEF7C1
:101A500002BC10BD00380140B0000020FEE7704716
:101A600070477047FEF7C0BF30B58FB02821684679
:101A7000FEF791FB14210AA8FEF78DFB0121080453
:101A8000CDE900100024029402250491CDE907500D
:101A90004FF4E01009906846FFF72AF90F20CDE9CE
:101AA0000A056802CDE90C4002210AA80E94FFF74E
:101AB00033F80FB030BD70470148FFF7E9BB0000B5
:101AC00068000020F0B502681C4B1D4D1D4E1E4FD6
:101AD0001E4C4FF0804C984209D0A04207D0604580
:101AE00005D0A84203D0B04201D0B84204D122F0C0
:101AF000700E4A6842EA0E02984209D0A04207D00E
:101B0000604505D0A84203D0B04201D0B84203D10D
:101B100022F44075CA682A434D6922F080022A43A4
:101B200002608A68C2620A688262984201D0A0425A
:101B300001D10969016301214161F0BD002C01401F
:101B40000004004000080040000C00400034014048
:101B500010B5846842EA032224F47F440A432243F6
:101B6000826010BD826822F070020A4342F00701D1
:101B70008160704710B5036A046A24F001040462AE
:101B8000846924F0F00444EA021423F00A020A43B0
:101B90008461026210BD10B5036A23F01003036272
:101BA0008369046A23F4704343EA023224F0A003F9
:101BB00043EA01118261016210BD000070B5044664
:101BC00000680169E26821F4405111430161216913
:101BD000A0680843616908432168CA6841F20C6340
:101BE0009A430243CA6020684169A26921F44071A6
:101BF000114341611E492068884202D1FFF732F843
:101C000001E0FFF71FF800EBC00101EB0012606874
:101C100064218000B2FBF0F3B3FBF1F36FF0180620
:101C20007343B2FBF0F5B2FBF0F605EB830532230C
:101C300003EB0515B5FBF1F5B6FBF1F605F0F00584
:101C400005EB0615B2FBF0F6B2FBF0F0B0FBF1F0DD
:101C50006FF01802504306EB800003EB0010B0FB5E
:101C6000F1F0216800F00F002844886070BD00008A
:101C7000003801402DE9F041984617460E460446CB
:101C8000069D1DE0681C1BD02DB1FEF7F3FBA0EBF9
:101C90000800A84214D92068C16821F4D071C1603D
:101CA0002068416921F001014161202084F8390058
:101CB00084F83A00002084F838000320BDE8F08161
:101CC0002068006836EA000004D00020B842D9D06D
:101CD0000020F3E70120F9E7FEE700000FB4054B11
:101CE00010B503A9044A029800F028F810BC5DF86A
:101CF00014FB0000A1210008100000200907090EB4
:101D0000002804DB00F1E02080F80014704700F0A8
:101D10000F0000F1E02080F8141D704702E008C8B1
:101D2000121F08C1002AFAD170477047002001E055
:101D300001C1121F002AFBD1704700002DE9FF4F9F
:101D40008DB00F460546002606E025280BD0DDE9BC
:101D50000F1290476D1C761C28780028F5D111B021
:101D60003046BDE8F08F0024A246A1460122EC498E
:101D700000E0044315F8013F203B02FA03F008425B
:101D8000F7D128782A2810D06FF02F022878A0F1F8
:101D90003001092914D80AEB8A0102EB410144F011
:101DA000020400EB010A6D1CF0E701CF5FEA000AB4
:101DB00003D544F40054CAF1000A44F002046D1C37
:101DC00028782E2817D115F8010F44F004042A288A
:101DD0000ED06FF02F022878A0F1300109290AD81F
:101DE00009EB890102EB410100EB01096D1CF2E7EF
:101DF00057F8049B6D1C28786C280FD006DC4C2803
:101E000017D068280DD06A2814D104E0742810D0A7
:101E10007A280FD10DE044F400140AE044F4801451
:101E200001E044F440146978814202D104F5801441
:101E30006D1C6D1C2A786E2A1FD00CDC632A31D0F1
:101E400004DC002A8BD0582A11D1A3E0642A68D080
:101E5000692A0CD165E0732A2ED004DC6F2A73D076
:101E6000702A04D19BE0752A6FD0782A6ED0104674
:101E7000DDE90F129047761C50E1C4F302500228AE
:101E800006D0032809D0042801CF09D0066045E117
:101E900001CFF117C0E9006140E101CF06803DE1CB
:101EA00006703BE117F8040B8DF8000000208DF858
:101EB0000100EB46012003E057F804BB4FF0FF3070
:101EC00061074FF0000102D40DE008F101018846DE
:101ED00049450FDA8045F8DB1BF808100029F4D1DA
:101EE00008E008F1010188468142FADB1BF808107E
:101EF0000029F6D1DDE90F23AAEB0800814621462F
:101F000000F036F9304400EB080604E0DDE90F127A
:101F10001BF8010B9047B8F10108F7D2214648465B
:101F2000F7E00A21C4F302534FF0000B0891022B93
:101F300004D001CFC117032B09D00AE0FF1D27F001
:101F40000707F7E8020108E032E01FE020E000B2F6
:101F5000C117042B01D140B2C117031E71F1000358
:101F600007DA4FF0000CD0EB0C006CEB01012D23D5
:101F700002E0230504D52B238DF82430012303E050
:101F8000E30701D02023F7E7984658E00A2110E044
:101F900010210EE010204FF0000B08900CE01021F3
:101FA0004FF0000B44F004044FF00809089103E0DF
:101FB00008214FF0000B0891C4F30253022B04D008
:101FC00001CF0021032B06D006E0FF1D27F00707F5
:101FD000F7E8020103E080B2042B00D1C0B24FF059
:101FE000000823072BD5702A07D0DDF820C08CF01D
:101FF000100C5CEA0B0C05D00EE040238DF8243069
:10200000012308E050EA010306D030238DF8243084
:102010008DF8252002239846DDF820C08CF0080CAE
:102020005CEA0B0C0BD150EA010301D1630706D522
:1020300030238DF824304FF00108A9F10109582A06
:1020400004D038A20B9208AA0A920BE03AA2F9E750
:102050005B46089AFEF7AAF80B9B9B5C0A9A521EF5
:102060000A92137050EA0102F2D10A98ADEB000017
:1020700000F1200B600702D524F4803401E04FF01A
:102080000109D94502DDA9EB0B0000E0002000EBBF
:102090000B0141440890AAEB010AE00306D4DDE9F4
:1020A0000F232146504600F063F806444FF0000924
:1020B00008E009A911F80900DDE90F12904709F1BC
:1020C0000109761CC145F4DBE0030CD5DDE90F23E3
:1020D0002146504600F04CF8064404E0DDE90F12BA
:1020E00030209047761C0899481E08900029F5DC9E
:1020F00008E00A980A990078491C0A91DDE90F1254
:102100009047761CBBF10001ABF1010BF1DC2146DD
:102110005046DDE90F2300F019F806446D1C1BE65C
:1021200009280100303132333435363738396162AD
:102130006364656600000000303132333435363771
:102140003839414243444546000000002DE9F04142
:10215000044600251E461746880404D405E0394687
:102160002020B0476D1C641EF9D52846BDE8F081DB
:102170002DE9F041044600251E469046C80301D5CE
:10218000302700E02027880404D505E04146384682
:10219000B0476D1C641EF9D52846BDE8F0810000EB
:1021A00013B54FF6FF73012269460248FFF790F915
:1021B00000981CBDB0000020ADF51A7DFEF71CFC98
:1021C000FFF752FCFFF7C6FBFFF7FAFBFFF72AFC0D
:1021D000FFF7D6FB1F48FEF7B9FF002003AD2854D8
:1021E000401CFF28FBDD1CA0FFF778FD0024FF2624
:1021F00010274FF6FF7800BF05EB0410CDE900076C
:1022000008EA04120123A02102962348FEF724FBCA
:10221000E8B122A0FFF762FD1420FEF71DF8641C50
:10222000102CE9DB4FF480704EADCDE90050012356
:102230000022A12102961848FEF7E6F9002420A00A
:10224000295DFFF74BFD641CFF2CF8DDFEE71FA0A6
:10225000E0E70000680000200D0A2A2A2A2A2A2A1C
:102260002A2A2A2A2A2A2A2A2A49324320457861F8
:102270006D706C65202A2A2A2A2A2A2A2A2A2A2AC2
:102280002A2A2A2A2A2A2A2A2A2A2A2A2A2A2A2AAE
:102290002A2A2A2A0D0A0000140000200D0A2045CF
:1022A0004550524F4D2032344330322057726974BA
:1022B0006520546573742046616C7365200D0A00B7
:1022C0003078253032582020000000000D0A2045CB
:1022D0004550524F4D20323443303220577269748A
:1022E000652054657374204F4B200D0A00000000D8
:1022F00000000000000000000102030406070809B6
:102300000000000001020304282300080000002050
:10231000140000001C1D00083C23000814000020CD
:10232000DC0400002C1D000801000000100000006B
:0C233000000000000024F4000000000089
:0400000508000131BD
:00000001FF
